:100000000C943E010C946F010C946F010C946F01E1
:100010000C946F010C946F010C946F010C946F01A0
:100020000C946F010C946F010C946F010C946F0190
:100030000C946F010C946F010C946F010C946F0180
:100040000C946F010C946F010C946F010C946F0170
:100050000C946F010C946F010C946F010C94AC081C
:100060000C946F010C9476080C944C080C946F015E
:100070000C946F010C946F010C946F010C946F0140
:100080000C946F010C946F010C946F010C946F0130
:100090000C946F010C946F010C946F010C946F0120
:1000A0000C946F010C946F010C946F010C946F0110
:1000B0000C946F010C946F010C946F010C946F0100
:1000C0000C946F010C946F010C946F010C946F01F0
:1000D0000C946F010C946F010C946F010C946F01E0
:1000E0000C946F010C943C030C944A030C947D0314
:1000F0000C9480020C94AA010C9469030C946F0375
:100100000C9417100C9473030C94E6010C94610387
:100110000C9446030C943A020C94F6080C94420397
:100120000C9457030C947C030C9465030C947E058B
:100130000C94D7010C94C3060C94CD020C9451037B
:100140000C944E030C9481030C945B030C94770382
:100150000C94A9010C9448020000210024002700FF
:100160002A002D00300033000101000004010701C6
:100170000A0100002200250028002B002E0031007B
:10018000340002010000050108010B0100000A0B08
:1001900002090C0D0E080703040100000000000016
:1001A000000000000000000000000000000000004F
:1001B000000000000000000012111000000000000C
:1001C000000000000000000000000000000000002F
:1001D0000000000020002300260029002C002F0032
:1001E00032000001000003010601090105050505B3
:1001F000070508080808020202020A0A080804049F
:1002000004040101010101010101030303030303CC
:100210000303040707070C0C0C0C0C0C0C0C02025B
:10022000020206060606060606060B0B0B0B0B0B58
:100230000B0B0102102020080810204010204080E5
:10024000020102010804020101020408102040809A
:100250008040201008040201800402018040201028
:100260000804020108040201010204081020408071
:100270000102040810204080F608171011241FBE48
:10028000CFEFD1E2DEBFCDBF00E00CBF23E0A8EB93
:10029000B2E001C01D92AF39B207E1F712E0A0E071
:1002A000B2E0ECEBF8E200E00BBF02C007900D9269
:1002B000A83BB107D9F711E0CDE3D1E000E006C0DB
:1002C00021970109802FFE010E94EE11CC33D10746
:1002D00080E00807A9F70E9466090C944C140C945E
:1002E0000000CF92DF92EF92FF92CF93DF93B09115
:1002F0008903A0E08111AB2F80918A0390E0880FE1
:10030000991FAC014E525E4FC0908F03D090900366
:10031000E0909103F090920330E020E0FA01C59163
:10032000D491E881B90190E080E0EB23EA130AC0A0
:100330002F5F3F4F6C157D058E059F0578F36FEF9E
:100340007FEFCB01DF91CF91FF90EF90DF90CF90C7
:1003500008950895AF92BF92CF92DF92EF92FF92ED
:100360000F931F93CF93DF936C017B018B01040FDD
:10037000151FEB015E01AE18BF08C017D10759F079
:100380006991D601ED91FC910190F081E02DC601BB
:100390001995892B79F7C501DF91CF911F910F91A5
:1003A000FF90EF90DF90CF90BF90AF900895FC0149
:1003B000538D448D252F30E0842F90E0821B930BCA
:1003C000541710F0CF96089501970895FC01918D70
:1003D000828D981761F0A28DAE0FBF2FB11D5D9673
:1003E0008C91928D9F5F9F73928F90E008958FEF15
:1003F0009FEF08952FB7F8948091C9029091CA0297
:10040000A091CB02B091CC022FBF8093D5029093E4
:10041000D602A093D702B093D8028DEC92E00E944E
:10042000E60197FF26C02FB7F8948091C9029091FA
:10043000CA02A091CB02B091CC022FBF4091D5024D
:100440005091D6026091D7027091D802841B950B0F
:10045000A60BB70B4091D1025091D2026091D3020A
:100460007091D40284179507A607B707B0F28FEFF3
:100470009FEF0895FC01918D828D981731F0828D48
:10048000E80FF11D858D90E008958FEF9FEF08959F
:10049000FC01918D228D892F90E0805C9F4F821B03
:1004A00091098F73992708958DEC92E00E9448027C
:1004B00021E0892B09F420E0822F0895FC01A48D0E
:1004C000A80FB92FB11DA35ABF4F2C91848D90E076
:1004D00001968F739927848FA689B7892C93A08959
:1004E000B1898C91837080648C93938D848D9813E3
:1004F00006C00288F389E02D80818F7D8083089576
:10050000EF92FF920F931F93CF93DF93EC0181E063
:10051000888F9B8D8C8D98131AC0E889F98980810A
:1005200085FF15C09FB7F894EE89FF896083E8893D
:10053000F98980818370806480839FBF81E090E02F
:10054000DF91CF911F910F91FF90EF900895F62EBC
:100550000B8D10E00F5F1F4F0F731127E02E8C8D56
:100560008E110CC00FB607FCFACFE889F98980819B
:1005700085FFF5CFCE010E945E02F1CFEB8DEC0F2F
:10058000FD2FF11DE35AFF4FF0829FB7F8940B8FB8
:10059000EA89FB8980818062CFCFCF93DF93EC0122
:1005A000888D8823B9F0AA89BB89E889F9898C915B
:1005B00085FD03C0808186FD0DC00FB607FCF7CF17
:1005C0008C9185FFF2CF808185FFEDCFCE010E9417
:1005D0005E02E9CFDF91CF91089580E090E0892B12
:1005E00029F00E94540281110E94000080E090E0F6
:1005F000892B49F080E090E0892B29F00E940000CF
:1006000081110E94000080E090E0892B49F080E099
:1006100090E0892B29F00E94000081110E940000C7
:1006200080E090E0892B49F080E090E0892B29F070
:100630000E94000081110C940000089581508231C5
:1006400008F05AC0E82FF0E08827E65DFC4F8F4F96
:100650000C94EE114A034E033C03420346037C0311
:10066000510357035B036103650369036F0373035E
:100670007C0377037D038103809180008F778093D3
:1006800080000895809180008F7DF9CF8091800057
:10069000877FF5CF84B58F7784BD089584B58F7D2E
:1006A000FBCF8091B0008F778093B0000895809148
:1006B000B0008F7DF9CF809190008F77809390006C
:1006C0000895809190008F7DF9CF80919000877F71
:1006D000F5CF8091A0008F778093A000089580913E
:1006E000A0008F7DF9CF8091A000877FF5CF80910A
:1006F00020018F77809320010895809120018F7DC4
:10070000F9CF80912001877FF5CFCF93DF93282FFA
:1007100030E0F901E457FE4F8491F901EE5CFD4FA2
:10072000D491F901E451FE4FC491CC23A1F0811181
:100730000E941E03EC2FF0E0EE0FFF1FEE52FE4F63
:10074000A591B491EC91ED2381E090E009F480E073
:10075000DF91CF91089580E090E0FACF1F93CF937F
:10076000DF93282F30E0F901E457FE4F8491F9011F
:10077000EE5CFD4FD491F901E451FE4FC491CC23BE
:10078000A9F0162F81110E941E03EC2FF0E0EE0F4E
:10079000FF1FEE58FE4FA591B4918FB7F894EC91DE
:1007A000111108C0D095DE23DC938FBFDF91CF916C
:1007B0001F910895DE2BF8CFCF93DF9390E0FC01DB
:1007C000EE5CFD4F249184519E4FFC01849188235F
:1007D000C9F090E0880F991FFC01E85AFE4FA591DF
:1007E000B491FC01EE58FE4FC591D49161110DC03A
:1007F0009FB7F8948C91209582238C93888128232D
:1008000028839FBFDF91CF910895623051F49FB745
:10081000F8943C91822F809583238C93E8812E2B32
:10082000EFCF8FB7F894EC912E2B2C938FBFEACF9C
:100830003FB7F8948091B9029091BA02A091BB029F
:10084000B091BC0226B5A89B05C02F3F19F00196B8
:10085000A11DB11D3FBFBA2FA92F982F8827BC011A
:10086000CD01620F711D811D911D42E0660F771F42
:10087000881F991F4A95D1F708958F929F92AF9242
:10088000BF92CF92DF92EF92FF924B015C010E94E8
:1008900018046B017C010E9418046C197D098E09F3
:1008A0009F09683E734081059105A8F321E0821AF3
:1008B0009108A108B10888EEC80E83E0D81EE11C9B
:1008C000F11C81149104A104B10429F7FF90EF9069
:1008D000DF90CF90BF90AF909F908F900895CF9270
:1008E000DF92EF92FF920F931F93CF93DF93CDB7D9
:1008F000DEB7C054D1400FB6F894DEBF0FBECDBFF7
:100900002FB7F8948091C9029091CA02A091CB02AE
:10091000B091CC022FBF40918B0350918C0360911A
:100920008D0370918E038C019D01041B150B260B0A
:10093000370BB901A801403D57406105710590F49E
:1009400080919303C05CDE4F0FB6F894DEBF0FBEFC
:10095000CDBFDF91CF911F910F91FF90EF90DF906E
:10096000CF90089580938B0390938C03A0938D0375
:10097000B0938E0310928603109285031092840325
:10098000109283031092820362E0809187030E9499
:10099000DC0361E070E080E090E00E943D0461E0F3
:1009A000809187030E94DC0360E0809187030E94AE
:1009B000AE03809188038551823020F58BE291E16E
:1009C0000197F1F762E0809187030E94DC03809138
:1009D000940390E08230910538F0880F991F880FBA
:1009E000991F05970197F1F7F89480E00E94710133
:1009F0006F3F7F4F8F4F9F4F61F410929303789416
:100A000080E0A0CF64E170E080E090E00E943D04CF
:100A1000D9CF81E00E9471016F3F7F4F8F4F9F4F71
:100A200061F38E010F5F1F4F6E018FEBC81A8EEFBF
:100A3000D80A780180E00E947101F7016083718318
:100A40008283938381E00E947101F701648375833F
:100A500086839783F8E0EF0EF11CEC14FD0451F748
:100A6000789430E020E0F801C080D180E280F3800B
:100A70004481558166817781FFEFCF16DF06EF064F
:100A8000FF0631F04F3F8FEF58076807780719F4DA
:100A900010929303B5CFF90183E0F595E7958A9518
:100AA000E1F7EE57FC4F8081880FC416D506E606A5
:100AB000F70610F180832F5F3F4F085F1F4F2832EA
:100AC000310589F64091860320918203809183034A
:100AD000280F3327331F80918403280F311D809105
:100AE0008503820F932F911D99274817190681F6C8
:100AF00081E08093930326CF8160DCCF90E080E09B
:100B00000895CF93DF93EC0160E08E810E94AE03E5
:100B100061E08E810E94AE0360E08E810E94AE0390
:100B20008BE891E00197F1F7DF91CF910895CF9293
:100B3000DF92EF92FF920F931F93CF93DF936C019D
:100B40007C0187E0E80EF11CD0E0C0E0062F10E049
:100B5000B8010C2E02C0759567950A94E2F7617092
:100B6000F70181917F010E94AE032196C430D10527
:100B700079F7C601DF91CF911F910F91FF90EF9010
:100B8000DF90CF900C948105CF92DF92EF92FF928D
:100B90000F931F93CF93DF93EC01F62E642F8C817C
:100BA0000E94AE038D818F3F19F060E00E94AE037A
:100BB0000F2D10E08F8584FF25C06E0187E0C80EE1
:100BC000D11CF12CE12CB8010E2C02C07595679553
:100BD0000A94E2F76170F60181916F010E94AE0301
:100BE000FFEFEF1AFF0A88E0E816F10461F7CE0183
:100BF000DF91CF911F910F91FF90EF90DF90CF90F9
:100C00000C948105B80184E0759567958A95E1F7A4
:100C1000CE010E9497056F2DCE01DF91CF911F91DC
:100C20000F91FF90EF90DF90CF900C94970540E0EC
:100C3000682F8AE693E00C94C405CF93DF9382304B
:100C400029F49091790398609093790380937D03C0
:100C500010927E0380E480937F0380E18093800381
:100C600080E58093810361E080916E030E94DC0344
:100C700080916F038F3F19F061E00E94DC0361E017
:100C8000809170030E94DC03CAE6D3E09E012A56DD
:100C900033408091790384FD0BC084E090E021967D
:100CA0002817390744F461E08E810E94DC03EECFFF
:100CB00088E090E0F4CF8BE39DE00197F1F760E0EE
:100CC00080916E030E94AE0360E0809170030E94E9
:100CD000AE0380916F038F3F19F060E00E94AE0376
:100CE0008091790384FD39C063E08AE693E00E9435
:100CF0009705CBE4D6E4CE010197F1F763E08AE6ED
:100D000093E00E9497052197F1F763E08AE693E06C
:100D10000E94970583E592E00197F1F762E08AE689
:100D200093E00E9497058091790380620E941706E4
:100D300084E080937A038CE00E94170681E00E9491
:100D400017068BE39FE10197F1F782E080937B0325
:100D500086E0DF91CF910C94170680620E941706FF
:100D60008BE496E40197F1F78091790380620E9409
:100D7000170683E592E00197F1F78091790380628D
:100D80000E941706D0CF41E00E94C40581E090E0A8
:100D9000089542E050E069E272E08DEC92E00C943C
:100DA000AA01CF93DF93FC0101900020E9F731976E
:100DB000AF01481B590BBC018DEC92E00E94AA01C7
:100DC000EC010E94C9068C0F9D1FDF91CF91089501
:100DD000CF93DF93FC0144815581608171818DEC5B
:100DE00092E00E94AA01EC010E94C9068C0F9D1F8F
:100DF000DF91CF910895FC0180819181009711F0DE
:100E00000C9492120895CF93DF93DC0114962D91E8
:100E10003C911597232B79F0FB01CD91DC916081FA
:100E20007181CE010E943214009729F08C1B9D0B1A
:100E3000DF91CF9108958FEF9FEFFACFFB014481AF
:100E40005581FC01248135812417350778F0808194
:100E50009181009759F0FB016081718161157105E5
:100E600029F00E94151421E0892B09F020E0822F3F
:100E70000895FC0124813581232B39F421E0FB0105
:100E80008081882349F020E007C0808191810E9401
:100E9000051421E0892BB9F7822F08950F931F9332
:100EA000CF93DF93EC0188819981009759F02A81D3
:100EB0003B812617370730F081E0DF91CF911F91FA
:100EC0000F9108958B016F5F7F4F0E941B13009756
:100ED00059F0998388831B830A832C813D81232BBE
:100EE00059F7FC011082E8CF80E0E7CFEF92FF9244
:100EF0000F931F93CF93DF936115710541F480E049
:100F0000DF91CF911F910F91FF90EF9008954115C0
:100F10005105B1F07B01EC010C811D81040F151FFF
:100F2000B8010E944E07882351F3288139818C81B2
:100F30009D81B701820F931F0E940E141D830C83A5
:100F400081E0DECFCF93DF93EC01FB01448155813B
:100F5000608171810E94760781110CC0888199811E
:100F6000009711F00E949212198218821D821C8231
:100F70001B821A82CE01DF91CF910895EF92FF92EA
:100F80000F931F93CF93DF93EC017B018A01BA018A
:100F90000E944E0728813981811114C02115310525
:100FA00019F0C9010E949212198218821D821C82B6
:100FB0001B821A82CE01DF91CF911F910F91FF907A
:100FC000EF9008951D830C83B701C9010E940E1490
:100FD000F1CFEF92FF920F931F93CF93DF93CDB793
:100FE000DEB762970FB6F894DEBF0FBECDBF8C019F
:100FF000CB01F801118210821382128215821482B1
:101000004AE09E012F5F3F4F7901B9010E941B10FA
:10101000F70101900020E9F73197AF014E195F0900
:10102000B701C8010E94BE0762960FB6F894DEBFF2
:101030000FBECDBFDF91CF911F910F91FF90EF9029
:101040000895FB01DC0111961C921E9213961C92CE
:101050001E92129715961C921E9214978617970748
:1010600049F0608171816115710521F044815581DC
:101070000C94BE070895FC01118210821382128223
:1010800015821482FB0101900020E9F73197AF012E
:10109000461B570B0C94BE071F920F920FB60F9270
:1010A00011240BB60F922F933F934F935F936F933F
:1010B0007F938F939F93AF93BF93EF93FF938DECA9
:1010C00092E00E945E02FF91EF91BF91AF919F91DC
:1010D0008F917F916F915F914F913F912F910F90E1
:1010E0000BBE0F900FBE0F901F9018951F920F927E
:1010F0000FB60F9211240BB60F922F938F939F93DD
:10110000EF93FF93E091DD02F091DE028081E091A8
:10111000E302F091E40282FD1DC090818091E6021D
:101120008F5F8F732091E702821741F0E091E60212
:10113000F0E0E353FD4F958F8093E602FF91EF912E
:101140009F918F912F910F900BBE0F900FBE0F901C
:101150001F9018958081F2CF1F920F920FB60F92B9
:1011600011242F933F938F939F93AF93BF938091BD
:10117000C9029091CA02A091CB02B091CC023091E9
:10118000B80223E0230F2D3758F50196A11DB11D9C
:101190002093B8028093C9029093CA02A093CB0215
:1011A000B093CC028091B9029091BA02A091BB0297
:1011B000B091BC020196A11DB11D8093B90290931C
:1011C000BA02A093BB02B093BC02BF91AF919F91B2
:1011D0008F913F912F910F900FBE0F901F901895F8
:1011E00026E8230F0296A11DB11DD2CFEDECF2E04F
:1011F0001382128288EE93E0A0E0B0E084839583AE
:10120000A683B7838FE092E09183808385EC90E0A2
:101210009587848784EC90E09787868780EC90E0C0
:10122000918B808B81EC90E0938B828B82EC90E0B1
:10123000958B848B86EC90E0978B868B118E128E2B
:10124000138E148E6BE272E085E993E00E943B08F6
:10125000A2E8B3E083E015968C9315978BE0169681
:101260008C931697E5E3F2E0E4911796EC931797C9
:10127000EFEEF1E0E4911896EC93189740E85EE306
:1012800060E070E01D964D935D936D937C93509755
:10129000EAE6F3E01382128281E292E09183808396
:1012A00084E084838FEF858385E0868386E087836F
:1012B00087E0808788E0818789E0828713861486AB
:1012C00015861686178681E00C941D06CF93DF9352
:1012D000CDB7DEB768970FB6F894DEBF0FBECDBFAF
:1012E000789484B5826084BD84B5816084BD85B501
:1012F000826085BD85B5816085BD80916E0081600D
:1013000080936E00109281008091810082608093B2
:1013100081008091810081608093810080918000B4
:101320008160809380008091B10084608093B100DF
:101330008091B00081608093B000809191008260C4
:1013400080939100809191008160809391008091C1
:1013500090008160809390008091A10082608093D2
:10136000A1008091A10081608093A1008091A000E4
:1013700081608093A000809121018260809321018F
:101380008091210181608093210180912001816001
:101390008093200180917A00846080937A0080910C
:1013A0007A00826080937A0080917A0081608093D5
:1013B0007A0080917A00806880937A001092C10050
:1013C00062E0809187030E94DC032FB7F89480913C
:1013D000C9029091CA02A091CB02B091CC022FBF5A
:1013E000805D9740A109B10980938B0390938C0392
:1013F000A0938D03B0938E0387E38093940382E0E0
:101400000E941D06E091DD02F091DE0282E0808301
:10141000E091D902F091DA021082E091DB02F091C2
:10142000DC028FEC80831092E502E091E102F09102
:10143000E20286E08083E091DF02F091E0028081A9
:1014400080618083E091DF02F091E002808188601A
:101450008083E091DF02F091E002808180688083E8
:10146000E091DF02F091E00280818F7D808361E076
:1014700082E30E94DC0361E083E30E94DC0361E01D
:1014800085E30E94DC0361E084E30E94DC0361E009
:1014900086E10E94DC0361E087E10E94DC0361E0F9
:1014A00088E10E94DC0361E089E10E94DC0361E0E5
:1014B0008AE10E94DC0361E08BE10E94DC0361E0D1
:1014C0008CE10E94DC0361E08DE10E94DC0360E0BE
:1014D00086E30E94DC0360E087E30E94DC0360E0B7
:1014E00088E30E94DC0360E089E30E94DC0360E0A3
:1014F0008DE30E94DC0360E08CE30E94DC0360E08B
:101500008BE30E94DC0360E08AE30E94DC030BE3D0
:101510001FE18DEC92E00E944802181619060CF0AB
:1015200042C3ADB6BEB66BE272E0CE0101960E9438
:101530003B080E94FA0197FD0CC08F83188641E09A
:1015400050E0BE01695F7F4FCE0101960E94760791
:10155000F0CF8091950390919603009709F489C08C
:1015600069817A816115710509F481C04091970301
:10157000509198032D813E814217530708F477C09C
:101580000E940E148D819E8190939A0380939903FB
:101590001E821D82CE0101960E94FB06C090990317
:1015A000D0909A03C60101962DB73EB7281B390B80
:1015B0000FB6F8943EBF0FBE2DBFEDB7FEB7319604
:1015C0007F01892B29F0C114D10409F069C0108270
:1015D0006BE272E0CE0143960E943B08F7018191D5
:1015E0007F01882309F4D6C28B3309F0C7C2CE012C
:1015F00043960E94E806BE016D5E7F4FCE010D96B8
:101600000E9421086CE272E0CE0101960E943B0824
:10161000BE016F5F7F4FCE010D960E941E07D82E30
:10162000CE0101960E94FB06DD2009F451C0BE01E7
:10163000635F7F4FCE0101960E9421086EE272E047
:10164000CE0101960E9439078823B1F1109204025D
:1016500060E085E30E94AE0360E084E30E94AE0395
:1016600060E083E30E94AE0360E082E35FC00E941B
:10167000921289819A8190939603809395038B812E
:101680009C8190939803809397038D819E81909382
:101690009A03809399031A8219821C821B8278CF45
:1016A0006091950370919603A601CF010E942314C7
:1016B000F701EC0DFD1D8BCF81E080930402809338
:1016C0000302809302028093010280930002C0CF44
:1016D00064E372E0CE0101960E943B08BE016F5F99
:1016E0007F4FCE010D960E941E07D82ECE01019687
:1016F0000E94FB06DD20C9F1BE01635F7F4FCE0172
:1017000001960E94210866E372E0CE0101960E94D4
:10171000390761E0811109C06EE372E0CE010196E4
:101720000E9439078823A9F060E084E30E94AE0399
:10173000CE0101960E94FB06CE010D960E94FB068B
:1017400050E040E06BE272E0CE0143960E94BE079B
:1017500045CF67E472E0CE0101960E94390761E04F
:10176000811101C060E085E3E1CF61E572E0CE0167
:1017700001960E943B08BE016F5F7F4FCE010D9620
:101780000E941E07D82ECE0101960E94FB06DD2086
:1017900021F1BE01635F7F4FCE0101960E942108B7
:1017A00063E572E0CE0101960E94390761E0811184
:1017B0005CCF6BE572E0CE0101960E943907811182
:1017C00053CF64E672E0CE0101960E94390761E0D2
:1017D000811101C060E083E3A9CF6EE672E0CE0123
:1017E00001960E943B08BE016F5F7F4FCE010D96B0
:1017F0000E941E07D82ECE0101960E94FB06DD2016
:1018000009F49ACFBE01635F7F4FCE0107960E9415
:101810002108CE0107960E94E80660E772E0CE013B
:1018200001960E943B08BE016F5F7F4FCE01079675
:101830000E9403076C01CE0101960E94FB061C1456
:101840001D0434F561E372E0CE0101960E943B086D
:10185000BE016F5F7F4FCE0107960E9403076C01A8
:10186000CE0101960E94FB061C141D0454F461E095
:1018700086E10E94AE0381E08093C802CE01079604
:1018800059CF60E086E10E94AE031092C802F6CF05
:1018900062E772E0CE0101960E943B08BE016F5FD5
:1018A0007F4FCE0107960E9403076C01CE0101967F
:1018B0000E94FB061C141D0424F561E372E0CE01B6
:1018C00001960E943B08BE016F5F7F4FCE010796D5
:1018D0000E9403076C01CE0101960E94FB061C14B6
:1018E0001D0444F461E087E10E94AE0381E080932F
:1018F000C702C4CF60E087E10E94AE031092C70226
:10190000BDCF64E772E0CE0101960E943B08BE01A4
:101910006F5F7F4FCE0107960E9403076C01CE01D7
:1019200001960E94FB061C141D0424F561E372E07D
:10193000CE0101960E943B08BE016F5F7F4FCE0132
:1019400007960E9403076C01CE0101960E94FB06D8
:101950001C141D0444F461E088E10E94AE0381E0A0
:101960008093C6028BCF60E088E10E94AE031092A4
:10197000C60284CF66E772E0CE0101960E943B0862
:10198000BE016F5F7F4FCE0107960E9403076C0177
:10199000CE0101960E94FB061C141D0424F561E390
:1019A00072E0CE0101960E943B08BE016F5F7F4F3F
:1019B000CE0107960E9403076C01CE0101960E949A
:1019C000FB061C141D0444F461E089E10E94AE038F
:1019D00081E08093C50252CF60E089E10E94AE03AE
:1019E0001092C5024BCF68E772E0CE0101960E94CB
:1019F0003B08BE016F5F7F4FCE0107960E94030731
:101A00006C01CE0101960E94FB061C141D0424F5F6
:101A100061E372E0CE0101960E943B08BE016F5F58
:101A20007F4FCE0107960E9403076C01CE010196FD
:101A30000E94FB061C141D0444F461E08AE10E942C
:101A4000AE0381E08093C40219CF60E08AE10E9476
:101A5000AE031092C40212CF6AE772E0CE01019683
:101A60000E943B08BE016F5F7F4FCE0107960E9428
:101A700003076C01CE0101960E94FB061C141D0495
:101A800024F561E372E0CE0101960E943B08BE019D
:101A90006F5F7F4FCE0107960E9403076C01CE0156
:101AA00001960E94FB061C141D0444F461E08BE1C6
:101AB0000E94AE0381E08093C302E0CE60E08BE140
:101AC0000E94AE031092C302D9CE6CE772E0CE0141
:101AD00001960E943B08BE016F5F7F4FCE010796C3
:101AE0000E9403076C01CE0101960E94FB0661E390
:101AF00072E0CE0101961C141D0404F50E943B08FF
:101B0000BE016F5F7F4FCE0107960E9403076C01F5
:101B1000CE0101960E94FB061C141D0444F461E0F2
:101B20008CE10E94AE0381E08093C202A7CE60E008
:101B30008CE10E94AE031092C202A0CE0E943B082C
:101B4000BE016F5F7F4FCE0107960E9403076C01B5
:101B5000CE0101960E94FB061C141D0444F461E0B2
:101B60008DE10E94AE0381E08093C10287CE60E0E8
:101B70008DE10E94AE031092C10280CE89831A8249
:101B800041E050E0BE016F5F7F4FCE0143960E945F
:101B9000760724CDCE0143960E94FB060FB6F8943B
:101BA000BEBE0FBEADBE0E946F04882349F0809177
:101BB00088038B3028F08D3040F085518230C8F199
:101BC00060E070E080EC9FE71CC06091830370E0F0
:101BD00090E080E00E9452102DEC3CEC4CEC5DE378
:101BE0000E948D106B017C016091820370E090E097
:101BF00080E00E9452109B01AC01C701B6010E9417
:101C00004C110E94B8116B017093C0026093BF0227
:101C10000E946F04882341F0809188038C3009F47E
:101C2000A2C1C8F48B3081F160E070E080EC9FE7E6
:101C300053C06091820370918303762767277627CC
:101C400090E080E00E9450102DEC3CEC4CEC5DE309
:101C50000E948D10D6CF8551823030F7B09084032A
:101C60006B2D70E0762F662766277F77809185033E
:101C7000682B90E080E00E9450102DEC3CEC4CEC86
:101C80005DE30E948D108BC16091840370E090E051
:101C900080E00E9450102B013C01B0908503B7FEFC
:101CA0000AC0AC019B0160E070E080E89FEB0E94FD
:101CB0004B112B013C016B2D6F7070E090E080E0C8
:101CC0000E9452102DEC3CEC4CEC5DE30E948D1018
:101CD000A30192010E944C110E94B8114B01709314
:101CE000BE026093BD0281E00E941706C801019701
:101CF000F1F7E1E080917D038111E0E0E195F0E012
:101D0000E659FC4F848980680E9417066EE772E0EE
:101D1000CE0101960E943B08B401CE0107960E94B5
:101D2000E90762E872E0CE0143960E943B08BE01DB
:101D30006D5E7F4FCE010D960E942108BE01695F46
:101D40007F4FCE010D960E94A207BE016F5F7F4FAD
:101D50000E94A207FC0144815581608171818AE65D
:101D600093E00E94AA01CE010D960E94FB06CE01CF
:101D700043960E94FB06CE0107960E94FB06CE0109
:101D800001960E94FB06E0917D03E23008F00BC152
:101D9000E150F0E0E659FC4F848980680E94170604
:101DA00060E972E0CE0101960E943B08B601CE01C7
:101DB00007960E94E90762E972E0CE0143960E940D
:101DC0003B08BE016D5E7F4FCE010D960E9421083B
:101DD000BE01695F7F4FCE010D960E94A207BE0132
:101DE0006F5F7F4F0E94A207FC0144815581608193
:101DF00071818AE693E00E94AA01CE010D960E94AD
:101E0000FB06CE0143960E94FB06CE0107960E9478
:101E1000FB06CE0101960E94FB06809104028823F6
:101E200009F440C08091BF029091C0029C012852E9
:101E300031092531310508F0B8C060E085E30E9422
:101E4000AE0360E084E30E94AE0380910202882327
:101E500049F081E080930302109202028CE992E043
:101E60000E94D1068091BD029091BE029C01235137
:101E700031092730310508F0B9C060E083E30E94E2
:101E8000AE0360E082E30E94AE03809100028823EB
:101E900049F01092000281E0809301028AEA92E008
:101EA0000E94D1068091C802811107C086E30E947A
:101EB0008503682F86E10E94AE038091C7028111DD
:101EC00007C087E30E948503682F87E10E94AE0365
:101ED0008091C602811107C088E30E948503682FA4
:101EE00088E10E94AE038091C502811107C089E399
:101EF0000E948503682F89E10E94AE038091C4028D
:101F0000811107C08DE30E948503682F8AE10E943A
:101F1000AE038091C302811107C08CE30E94850348
:101F2000682F8BE10E94AE038091C202811107C02D
:101F30008BE30E948503682F8CE10E94AE038091A1
:101F4000C102811107C08AE30E948503682F8DE1D9
:101F50000E94AE0368EC70E080E090E00E943D04D7
:101F60000E94ED02D6CAB09084036B2D70E090E021
:101F700080E00E9450102B013C01609185036F703E
:101F800070E090E080E00E9452102DEC3CEC4CECB4
:101F90005DE30E948D10A30192010E944C11B7FED7
:101FA0009BCE905899CEE1E0F4CEF090030261E030
:101FB000CD9774F085E30E94AE03FF2009F452CF61
:101FC0001092030281E08093020280EA92E048CFFF
:101FD00084E30E94AE03FF2009F444CF1092030271
:101FE00081E08093020284EA92E03ACFF09001020D
:101FF00061E04A9774F083E30E94AE03FF2009F486
:1020000051CF1092010281E0809300028EEA92E0AB
:1020100047CF82E30E94AE03FF2009F443CF81E063
:10202000809300021092010282EB92E039CF85E9A1
:1020300093E00C94FB06BB274A3031F4992322F439
:10204000BDE2909581959F4F0C942710BB27FB0113
:102050005527AA27880F991FAA1FA41710F0A41BA1
:1020600083955051B9F7A05DAA3308F0A95DA193FB
:10207000009779F7B111B1931192CB010C944010F4
:10208000DC01FC01672F71917723E1F7329704C0DF
:102090007C916D9370836291AE17BF07C8F308956A
:1020A000E89409C097FB3EF49095809570956195F2
:1020B0007F4F8F4F9F4F9923A9F0F92F96E9BB27A8
:1020C0009395F695879577956795B795F111F8CF24
:1020D000FAF4BB0F11F460FF1BC06F5F7F4F8F4F8F
:1020E0009F4F16C0882311F096E911C0772321F085
:1020F0009EE8872F762F05C0662371F096E8862F1D
:1021000070E060E02AF09A95660F771F881FDAF773
:10211000880F9695879597F908950E94A0100C94C2
:1021200011110E94031138F00E940A1120F095232A
:1021300011F00C94FA100C94001111240C94451118
:102140000E94221170F3959FC1F3950F50E0551F27
:10215000629FF001729FBB27F00DB11D639FAA27FC
:10216000F00DB11DAA1F649F6627B00DA11D661F4B
:10217000829F2227B00DA11D621F739FB00DA11D6C
:10218000621F839FA00D611D221F749F3327A00D26
:10219000611D231F849F600D211D822F762F6A2FC2
:1021A00011249F5750409AF0F1F088234AF0EE0F27
:1021B000FF1FBB1F661F771F881F91505040A9F754
:1021C0009E3F510580F00C94FA100C9445115F3F2E
:1021D000E4F3983ED4F3869577956795B795F79590
:1021E000E7959F5FC1F7FE2B880F911D9695879508
:1021F00097F9089597F99F6780E870E060E0089587
:102200009FEF80EC089500240A941616170618060E
:102210000906089500240A941216130614060506EA
:102220000895092E0394000C11F4882352F0BB0F7B
:1022300040F4BF2B11F460FF04C06F5F7F4F8F4FDE
:102240009F4F089557FD9058440F551F59F05F3F19
:1022500071F04795880F97FB991F61F09F3F79F0C8
:1022600087950895121613061406551FF2CF46954A
:10227000F1DF08C0161617061806991FF1CF8695CC
:102280007105610508940895E894BB2766277727B0
:10229000CB0197F908955058BB27AA270E946311D4
:1022A0000C9411110E94031138F00E940A1120F0C1
:1022B00039F49F3F19F426F40C9400110EF4E095C4
:1022C000E7FB0C94FA10E92F0E94221158F3BA1779
:1022D000620773078407950720F079F4A6F50C943C
:1022E00044110EF4E0950B2EBA2FA02D0B01B9016D
:1022F00090010C01CA01A0011124FF27591B99F07C
:10230000593F50F4503E68F11A16F040A22F232F87
:10231000342F4427585FF3CF469537952795A795D7
:10232000F0405395C9F77EF41F16BA0B620B730B7E
:10233000840BBAF09150A1F0FF0FBB1F661F771FEF
:10234000881FC2F70EC0BA0F621F731F841F48F4A4
:10235000879577956795B795F7959E3F08F0B0CF2D
:102360009395880F08F09927EE0F97958795089514
:102370000E94BF116894B1110C94451108950E94F8
:102380002A1188F09F5798F0B92F9927B751B0F0CC
:10239000E1F0660F771F881F991F1AF0BA95C9F7E9
:1023A00014C0B13091F00E944411B1E008950C9432
:1023B0004411672F782F8827B85F39F0B93FCCF3E5
:1023C000869577956795B395D9F73EF49095809566
:1023D000709561957F4F8F4F9F4F0895EE0FFF1FB0
:1023E000881F8BBF0790F691E02D19940F931F93D0
:1023F000CF93DF938230910510F482E090E0E0917A
:102400009D03F0919E0330E020E0B0E0A0E0309723
:1024100099F42115310509F44AC0281B390B2430E1
:102420003105D8F58A819B816115710589F1FB0120
:1024300093838283FE0111C0408151810281138107
:1024400048175907E0F04817590799F4109761F0B9
:1024500012960C93129713961C933296CF01DF912C
:10246000CF911F910F91089500939D0310939E03A8
:10247000F4CF2115310551F04217530738F0A90167
:10248000DB019A01BD01DF01F801C1CFEF01F9CFF6
:1024900090939E0380939D03CDCFFE01E20FF31F27
:1024A000819391932250310939832883D7CF20918A
:1024B0009B0330919C03232B41F420910702309120
:1024C000080230939C0320939B03209105023091D6
:1024D00006022115310541F42DB73EB7409109029E
:1024E00050910A02241B350BE0919B03F0919C0351
:1024F000E217F307A0F42E1B3F0B2817390778F0DB
:10250000AC014E5F5F4F2417350748F04E0F5F1F39
:1025100050939C0340939B03819391939FCFF0E052
:10252000E0E09CCFCF93DF930097E9F0FC01329776
:1025300013821282A0919D03B0919E03ED0130E0C1
:1025400020E01097A1F420813181820F931F209108
:102550009B0330919C032817390709F061C0F09361
:102560009C03E0939B03DF91CF910895EA01CE177E
:10257000DF07E8F54A815B819E0141155105B1F7FE
:10258000E901FB83EA8349915991C40FD51FEC17E8
:10259000FD0761F4808191810296840F951FE90106
:1025A00099838883828193819B838A83F0E0E0E032
:1025B00012968D919C9113970097B9F52D913C91AE
:1025C0001197CD010296820F931F20919B033091AA
:1025D0009C032817390739F6309751F510929E035E
:1025E00010929D03B0939C03A0939B03BCCFD38315
:1025F000C28340815181840F951FC817D90761F4A8
:102600004E5F5F4F88819981480F591F51834083E6
:102610008A819B81938382832115310509F0B0CF94
:10262000F0939E03E0939D039ECFFD01DC01C0CF9C
:1026300013821282D7CF4F925F926F927F928F92C6
:102640009F92AF92BF92CF92DF92EF92FF920F9341
:102650001F93CF93DF938C01009799F4CB01DF9107
:10266000CF911F910F91FF90EF90DF90CF90BF908F
:10267000AF909F908F907F906F905F904F900C9451
:10268000F611FC01E60FF71F9C0122503109E217F9
:10269000F30708F4AEC0D901CD91DC911197C617AC
:1026A000D70720F1C530D10578F0CE010497861701
:1026B000970750F0C61BD70B2297C193D1936D9308
:1026C0007C93CF010E949212C801DF91CF911F919C
:1026D0000F91FF90EF90DF90CF90BF90AF909F90C1
:1026E0008F907F906F905F904F9008955B01AC1A30
:1026F000BD0A4C018C0E9D1EA0919D03B0919E03BE
:10270000512C412CF12CE12C109731F580919B0339
:1027100090919C038815990509F05CC046165706F0
:1027200008F058C08091050290910602009741F48C
:102730008DB79EB74091090250910A02841B950BF8
:10274000E817F90708F055C0F0939C03E0939B034A
:10275000F90171836083B8CF8D919C911197129686
:102760006C90129713967C901397A815B90559F59C
:102770006C0142E0C40ED11CCA14DB0420F1AC0190
:102780004A195B09DA011296159780F0628273820A
:1027900051834083D9016D937C93E114F10471F06E
:1027A000D7011396FC93EE9312978ECF22968C0F3F
:1027B0009D1FF90191838083F301EFCFF0939E0376
:1027C000E0939D0381CF4816590608F42C017D0142
:1027D000D3019ACFCB010E94F6117C01009749F0FA
:1027E000AE01B8010E94FC13C8010E949212870139
:1027F0006BCF10E000E068CFFB01DC0102C001906C
:102800000D9241505040D8F70895FB01DC018D91A5
:10281000019080190110D9F3990B0895FB01DC0197
:1028200001900D920020E1F70895FB01DC01415079
:10283000504030F08D910190801919F40020B9F7C3
:10284000881B990B0895FB01DC014150504048F072
:1028500001900D920020C9F701C01D9241505040D7
:10286000E0F70895FB0151915523A9F0BF01DC0168
:102870004D9145174111E1F759F4CD010190002028
:1028800049F04D9140154111C9F3FB014111EFCFC2
:1028900081E090E00197089511E0CDE3D1E000E000
:1028A00006C0802FFE010E94EE112196011DCE333D
:0C28B000D10780E00807A9F7F894FFCFDB
:1028BC00010101010100009F038000000000008065
:1028CC0002AA01D701CD024802E6013A020000003B
:1028DC0000C306AA017E05A9010D0A006300633A34
:1028EC00206F6E00680068207570206F6E00682085
:1028FC007570206F6666006820646F776E206F6E4F
:10290C0000740074207570206F6E00742075702038
:10291C006F6666007420646F776E206F6E006C00BB
:10292C00310032003300340035003600370043C22A
:10293C00B00054656D70657261747572613A2000F7
:10294C00250048756D656461643A2000686F6B0002
:10295C006875700068646F776E00746F6B007475C7
:08296C00700074646F776E00C7
:00000001FF
