:020000040000FA
:100000000C9462000C948A000C948A000C948A0070
:100010000C948A000C948A000C948A000C948A0038
:100020000C948A000C948A000C948A000C948A0028
:100030000C948A000C948A000C948A000C948A0018
:100040000C94CF050C948A000C949D050C947705B4
:100050000C948A000C948A000C948A000C948A00F8
:100060000C948A000C948A000000000024002700F1
:100070002A0000000000250028002B0000000008D6
:10008000000201000003040700000000000000005F
:1000900000000000230026002900040404040404D6
:1000A0000404020202020202030303030303010227
:1000B00004081020408001020408102001020408F6
:1000C0001020190611241FBECFEFD8E0DEBFCDBF30
:1000D00011E0A0E0B1E0E0E5F4E102C005900D928E
:1000E000AC33B107D9F722E0ACE3B1E001C01D9217
:1000F000A131B207E1F710E0C2E6D0E004C02197D9
:10010000FE010E94200AC136D107C9F70E9483066A
:100110000C94260A0C940000CF92DF92EF92FF928B
:10012000CF93DF93B0910502A0E08111AB2F8091B6
:10013000060290E0880F991FAC0140575F4FC090B6
:100140000B02D0900C02E0900D02F0900E0230E015
:1001500020E0FA01C591D491E881B90190E080E0F6
:10016000EB23EA130AC02F5F3F4F6C157D058E0508
:100170009F0578F36FEF7FEFCB01DF91CF91FF9079
:10018000EF90DF90CF900895FC01538D448D252F83
:1001900030E0842F90E0821B930B541710F0CF9621
:1001A000089501970895FC01918D828D981761F053
:1001B000A28DAE0FBF2FB11D5D968C91928D9F5F6A
:1001C0009F73928F90E008958FEF9FEF0895FC0149
:1001D000918D828D981731F0828DE80FF11D858DFC
:1001E00090E008958FEF9FEF0895FC01918D228D8F
:1001F000892F90E0805C9F4F821B91098F73992714
:100200000895FC01A48DA80FB92FB11DA35ABF4FAB
:100210002C91848D90E001968F739927848FA68905
:10022000B7892C93A089B1898C91837080648C9359
:10023000938D848D981306C00288F389E02D808108
:100240008F7D80830895EF92FF920F931F93CF933A
:10025000DF93EC0181E0888F9B8D8C8D98131AC001
:10026000E889F989808185FF15C09FB7F894EE89E8
:10027000FF896083E889F989808183708064808345
:100280009FBF81E090E0DF91CF911F910F91FF9090
:10029000EF900895F62E0B8D10E00F5F1F4F0F7338
:1002A0001127E02E8C8D8E110CC00FB607FCFACFF3
:1002B000E889F989808185FFF5CFCE010E9401018F
:1002C000F1CFEB8DEC0FFD2FF11DE35AFF4FF082C4
:1002D0009FB7F8940B8FEA89FB8980818062CFCF2A
:1002E000CF93DF93EC01888D8823B9F0AA89BB896D
:1002F000E889F9898C9185FD03C0808186FD0DC058
:100300000FB607FCF7CF8C9185FFF2CF808185FF78
:10031000EDCFCE010E940101E9CFDF91CF91089589
:1003200089E491E00E94F50021E0892B09F420E0A6
:10033000822F089580E090E0892B29F00E9490019F
:1003400081110C9400000895AF92BF92CF92DF927A
:10035000EF92FF920F931F93CF93DF936C017B017A
:100360008B01040F151FEB015E01AE18BF08C0170B
:10037000D10759F06991D601ED91FC910190F0817E
:10038000E02DC6010995892B79F7C501DF91CF9141
:100390001F910F91FF90EF90DF90CF90BF90AF90A3
:1003A000089590E0FC01E458FF4F2491FC01E255D0
:1003B000FF4F3491FC01E656FF4FE491EE23C9F064
:1003C000222339F0233001F1A8F4213019F1223031
:1003D00029F1F0E0EE0FFF1FEE58FF4FA591B49109
:1003E0008FB7F894EC91611126C030953E233C9371
:1003F0008FBF08952730A9F02830C9F0243049F77D
:10040000809180008F7D03C0809180008F778093E2
:100410008000DFCF84B58F7784BDDBCF84B58F7D3F
:10042000FBCF8091B0008F778093B000D2CF8091C6
:10043000B0008F7DF9CF3E2BDACFCF93DF9390E0E2
:10044000FC01E255FF4F249186569F4FFC01849199
:100450008823D1F090E0880F991FFC01E859FF4FE5
:10046000A591B491FC01EE58FF4FC591D491623033
:1004700071F49FB7F8943C91822F809583238C93DD
:10048000E8812E2B28839FBFDF91CF9108958FB7EE
:10049000F894EC912E2B2C938FBFF6CF3FB7F894A6
:1004A00080913D0190913E01A0913F01B0914001AA
:1004B00026B5A89B05C02F3F19F00196A11DB11DBF
:1004C0003FBFBA2FA92F982F8827BC01CD01620FFB
:1004D000711D811D911D42E0660F771F881F991FB6
:1004E0004A95D1F708958F929F92AF92BF92CF9283
:1004F000DF92EF92FF924B015C010E944E026B0172
:100500007C010E944E026C197D098E099F09683E8C
:10051000734081059105A8F321E0821A9108A10892
:10052000B10888EEC80E83E0D81EE11CF11C8114CE
:100530009104A104B10429F7FF90EF90DF90CF90D0
:10054000BF90AF909F908F900895CF92DF92EF92DF
:10055000FF920F931F93CF93DF93CDB7DEB7C054B5
:10056000D1400FB6F894DEBF0FBECDBF2FB7F894C1
:100570008091450190914601A0914701B0914801B9
:100580002FBF4091070250910802609109027091BB
:100590000A028C019D01041B150B260B370BB901B8
:1005A000A801403D57406105710590F480910F020C
:1005B000C05CDE4F0FB6F894DEBF0FBECDBFDF913B
:1005C000CF911F910F91FF90EF90DF90CF90089502
:1005D0008093070290930802A0930902B0930A0245
:1005E0001092020210920102109200021092FF017A
:1005F0001092FE0162E0809103020E941D0261E000
:1006000070E080E090E00E94730261E0809103025C
:100610000E941D0260E0809103020E94D10180913E
:1006200004028551823020F58BE291E10197F1F7C8
:1006300062E0809103020E941D028091100290E00E
:100640008230910538F0880F991F880F991F059700
:100650000197F1F7F89480E00E948C006F3F7F4F84
:100660008F4F9F4F61F410920F02789480E0A0CFDB
:1006700064E170E080E090E00E947302D9CF81E0F5
:100680000E948C006F3F7F4F8F4F9F4F61F38E0111
:100690000F5F1F4F6E018FEBC81A8EEFD80A7801DB
:1006A00080E00E948C00F7016083718382839383D2
:1006B00081E00E948C00F7016483758386839783B1
:1006C000F8E0EF0EF11CEC14FD0451F7789430E0E3
:1006D00020E0F801C080D180E280F3804481558120
:1006E00066817781FFEFCF16DF06EF06FF0631F058
:1006F0004F3F8FEF58076807780719F410920F02E1
:10070000B5CFF90183E0F595E7958A95E1F7E250D9
:10071000FE4F8081880FC416D506E606F70610F155
:1007200080832F5F3F4F085F1F4F2832310589F6C6
:10073000409102022091FE018091FF01280F332792
:10074000331F80910002280F311D80910102820F1A
:10075000932F911D99274817190681F681E0809300
:100760000F0226CF8160DCCF089590E080E00895ED
:100770008F929F92AF92BF920F931F93CF93DF936D
:10078000CDB7DEB7A1970FB6F894DEBF0FBECDBFD1
:1007900019A2423008F44AE08E010F5D1F4F842EEB
:1007A000912CB12CA12CA50194010E94FE09E62FE9
:1007B000B901CA01EA3044F5E05DD801EE938D013C
:1007C000232B242B252B79F790E080E0109769F0FC
:1007D000FD0101900020E9F73197AF014A1B5B0B47
:1007E000BD0186EE91E00E94A401A1960FB6F89497
:1007F000DEBF0FBECDBFDF91CF911F910F91BF9094
:10080000AF909F908F900895E95CD7CFFC01019045
:100810000020E9F73197AF01481B590BBC0186EE68
:1008200091E00C94A401CF93DF93EC0160E08E8102
:100830000E94D10161E08E810E94D10160E08E8131
:100840000E94D1018BE891E00197F1F7DF91CF9100
:100850000895CF92DF92EF92FF920F931F93CF9361
:10086000DF936C017C0187E0E80EF11CD0E0C0E072
:10087000062F10E0B8010C2E02C0759567950A94FA
:10088000E2F76170F70181917F010E94D101219609
:10089000C430D10579F7C601DF91CF911F910F9137
:1008A000FF90EF90DF90CF900C941304CF92DF92E3
:1008B000EF92FF920F931F93CF93DF93EC01F62EED
:1008C000642F8C810E94D1018D818F3F19F060E0EF
:1008D0000E94D1010F2D10E08F8584FF25C06E018D
:1008E00087E0C80ED11CF12CE12CB8010E2C02C0FF
:1008F000759567950A94E2F76170F60181916F0131
:100900000E94D101FFEFEF1AFF0A88E0E816F10418
:1009100061F7CE01DF91CF911F910F91FF90EF9082
:10092000DF90CF900C941304B80184E0759567951F
:100930008A95E1F7CE010E9429046F2DCE01DF9147
:10094000CF911F910F91FF90EF90DF90CF900C947B
:10095000290440E0682F86EE91E00C945604CF9372
:10096000DF93823029F49091F50198609093F5011E
:100970008093F9011092FA0180E48093FB0180E1F9
:100980008093FC0180E58093FD0161E08091EA01A4
:100990000E941D028091EB018F3F19F061E00E94DF
:1009A0001D0261E08091EC010E941D02C6EED1E0C3
:1009B0009E01265E31408091F50184FD0BC084E0EC
:1009C00090E021962817390744F461E08E810E9457
:1009D0001D02EECF88E090E0F4CF8BE39DE001971D
:1009E000F1F760E08091EA010E94D10160E080911E
:1009F000EC010E94D1018091EB018F3F19F060E082
:100A00000E94D1018091F50184FD39C063E086EE3A
:100A100091E00E942904CBE4D6E4CE010197F1F7DE
:100A200063E086EE91E00E9429042197F1F763E0EC
:100A300086EE91E00E94290483E592E00197F1F7A8
:100A400062E086EE91E00E9429048091F5018062C7
:100A50000E94A90484E08093F6018CE00E94A9041E
:100A600081E00E94A9048BE39FE10197F1F782E006
:100A70008093F70186E0DF91CF910C94A904806206
:100A80000E94A9048BE496E40197F1F78091F501A7
:100A900080620E94A90483E592E00197F1F78091BA
:100AA000F50180620E94A904D0CF41E00E94560463
:100AB00081E090E00895CF92DF92EF92FF926B0178
:100AC0007C0141E06DE286EE91E00E9456046627CB
:100AD0007727CB016C197D098E099F094AE00E9496
:100AE000B8030196FF90EF90DF90CF9008951F928A
:100AF0000F920FB60F9211242F933F934F935F9352
:100B00006F937F938F939F93AF93BF93EF93FF93D5
:100B100089E491E00E940101FF91EF91BF91AF91B3
:100B20009F918F917F916F915F914F913F912F9105
:100B30000F900FBE0F901F9018951F920F920FB637
:100B40000F9211242F938F939F93EF93FF93E09134
:100B50005901F0915A018081E0915F01F0916001AB
:100B600082FD1BC09081809162018F5F8F73209105
:100B70006301821741F0E0916201F0E0E75BFE4F14
:100B8000958F80936201FF91EF919F918F912F91AB
:100B90000F900FBE0F901F9018958081F4CF1F9279
:100BA0000F920FB60F9211242F933F938F939F9321
:100BB000AF93BF938091450190914601A091470169
:100BC000B091480130913C0123E0230F2D3758F5B7
:100BD0000196A11DB11D20933C0180934501909386
:100BE0004601A0934701B093480180913D01909147
:100BF0003E01A0913F01B09140010196A11DB11DA0
:100C000080933D0190933E01A0933F01B09340013A
:100C1000BF91AF919F918F913F912F910F900FBEF8
:100C20000F901F90189526E8230F0296A11DB11D65
:100C3000D2CFE9E4F1E01382128288EE93E0A0E0E3
:100C4000B0E084839583A683B78384E091E09183A9
:100C5000808385EC90E09587848784EC90E097878B
:100C6000868780EC90E0918B808B81EC90E0938B79
:100C7000828B82EC90E0958B848B86EC90E0978B56
:100C8000868B118E128E138E148EAEEFB1E082E041
:100C900015968C9315978BE016968C931697E0EB30
:100CA000F0E0E4911796EC931797ECE9F0E0E4910B
:100CB0001896EC93189740E85EE360E070E01D96AC
:100CC0004D935D936D937C935097E6EEF1E0138224
:100CD000128286E191E09183808384E084838FEFA8
:100CE000858385E0868386E0878387E0808788E048
:100CF000818789E082871386148615861686178673
:100D000081E00C94AF04789484B5826084BD84B58E
:100D1000816084BD85B5826085BD85B5816085BDF6
:100D200080916E00816080936E00109281008091AE
:100D30008100826080938100809181008160809336
:100D40008100809180008160809380008091B1005B
:100D500084608093B1008091B00081608093B00086
:100D600080917A00846080937A0080917A0082601A
:100D700080937A0080917A00816080937A008091DC
:100D80007A00806880937A001092C10062E08091BE
:100D900003020E941D022FB7F894809145019091A3
:100DA0004601A0914701B09148012FBF805D974057
:100DB000A109B1098093070290930802A093090248
:100DC000B0930A0287E38093100282E00E94AF048E
:100DD00061E083E00E941D02EFE7F0E0E491E33080
:100DE00009F440C048F4E130D9F0E230A9F160E004
:100DF00083E00E94D10119C0E73009F43FC0E83018
:100E000009F445C0E43099F78091800080628093B6
:100E1000800082E390E090938B0080938A0005C06D
:100E200084B5806884BD82E387BDCBE3DFE100E069
:100E300010E00E94A502882351F0809104028B30BB
:100E400030F08D3068F18551823008F45CC060E08C
:100E500070E080EC9FE740C084B5806284BD82E38F
:100E600088BDE3CF8091800080688093800082E31A
:100E700090E09093890080938800D7CF8091B00054
:100E800080688093B00082E38093B300CECF8091DE
:100E9000B00080628093B00082E38093B400C5CF3D
:100EA0006091FF0170E090E080E00E9405092DEC68
:100EB0003CEC4CEC5DE30E9491094B015C016091BC
:100EC000FE0170E090E080E00E9405099B01AC010A
:100ED000C501B4010E9461080E94CD0870934401CD
:100EE000609343010E94A502882341F0809104028F
:100EF0008C3009F4BBC0C8F48B3081F160E070E045
:100F000080EC9FE753C06091FE017091FF0176274E
:100F10006727762790E080E00E9403092DEC3CECE7
:100F20004CEC5DE30E949109D7CF8551823030F7B8
:100F3000F09000026F2D70E0762F662766277F778E
:100F400080910102682B90E080E00E9403092DEC63
:100F50003CEC4CEC5DE30E949109A4C0609100025E
:100F600070E090E080E00E9403094B015C01F0908A
:100F70000102F7FE0AC0AC019B0160E070E080E86E
:100F80009FEB0E9460084B015C016F2D6F7070E059
:100F900090E080E00E9405092DEC3CEC4CEC5DE318
:100FA0000E949109A50194010E9461080E94CD0848
:100FB000709342016093410181E00E94A904CE0137
:100FC0000197F1F7E1E08091F9018111E0E0E1950D
:100FD000F0E0EA51FE4F848980680E94A9048EE106
:100FE00091E00E9406046091410170914201072E38
:100FF000000C880B990B97FF59C00E945B058CE28F
:1010000091E00E940604E091F901E23008F052C03C
:10101000E150F0E0EA51FE4F848980680E94A90403
:1010200080E391E00E9406046091430170914401C5
:10103000072E000C880B990B97FF3EC00E945B05A2
:101040008AE391E00E94060468E873E180E090E0A2
:101050000E9473020115110509F4EBCE0E94900164
:10106000882309F4E6CE0E940000E3CEF09000024F
:101070006F2D70E090E080E00E9403094B015C015D
:10108000609101026F7070E090E080E00E940509BD
:101090002DEC3CEC4CEC5DE30E949109A501940120
:1010A0000E946108F7FE82CF905880CF4AE00E94EC
:1010B000B803A5CFE1E0ADCF4AE00E94B803C0CFAE
:1010C0005058BB27AA270E9478080C9457090E9401
:1010D000490938F00E94500920F039F49F3F19F473
:1010E00026F40C9446090EF4E095E7FB0C944009B5
:1010F000E92F0E94680958F3BA176207730784073B
:10110000950720F079F4A6F50C948A090EF4E09581
:101110000B2EBA2FA02D0B01B90190010C01CA01B1
:10112000A0011124FF27591B99F0593F50F4503E5C
:1011300068F11A16F040A22F232F342F4427585F4E
:10114000F3CF469537952795A795F0405395C9F766
:101150007EF41F16BA0B620B730B840BBAF091501E
:10116000A1F0FF0FBB1F661F771F881FC2F70EC0BD
:10117000BA0F621F731F841F48F487957795679590
:10118000B795F7959E3F08F0B0CF9395880F08F07C
:101190009927EE0F9795879508950E94D408689433
:1011A000B1110C948B0908950E94700988F09F5723
:1011B00098F0B92F9927B751B0F0E1F0660F771F7B
:1011C000881F991F1AF0BA95C9F714C0B13091F071
:1011D0000E948A09B1E008950C948A09672F782F3C
:1011E0008827B85F39F0B93FCCF386957795679536
:1011F000B395D9F73EF490958095709561957F4FA2
:101200008F4F9F4F0895E89409C097FB3EF4909547
:101210008095709561957F4F8F4F9F4F9923A9F0CF
:10122000F92F96E9BB279395F6958795779567955E
:10123000B795F111F8CFFAF4BB0F11F460FF1BC0A2
:101240006F5F7F4F8F4F9F4F16C0882311F096E935
:1012500011C0772321F09EE8872F762F05C06623E3
:1012600071F096E8862F70E060E02AF09A95660F9C
:10127000771F881FDAF7880F9695879597F9089555
:1012800097F99F6780E870E060E008959FEF80EC39
:10129000089500240A9416161706180609060895DC
:1012A00000240A9412161306140605060895092E42
:1012B0000394000C11F4882352F0BB0F40F4BF2BB1
:1012C00011F460FF04C06F5F7F4F8F4F9F4F0895F1
:1012D00057FD9058440F551F59F05F3F71F04795E7
:1012E000880F97FB991F61F09F3F79F087950895CC
:1012F000121613061406551FF2CF4695F1DF08C0EB
:10130000161617061806991FF1CF86957105610507
:1013100008940895E894BB2766277727CB0197F9AF
:1013200008950E94A4090C9457090E94490938F0B5
:101330000E94500920F0952311F00C9440090C9460
:10134000460911240C948B090E94680970F3959F3B
:10135000C1F3950F50E0551F629FF001729FBB27AC
:10136000F00DB11D639FAA27F00DB11DAA1F649F48
:101370006627B00DA11D661F829F2227B00DA11DFB
:10138000621F739FB00DA11D621F839FA00D611D81
:10139000221F749F3327A00D611D231F849F600DA2
:1013A000211D822F762F6A2F11249F5750409AF0CB
:1013B000F1F088234AF0EE0FFF1FBB1F661F771F57
:1013C000881F91505040A9F79E3F510580F00C9422
:1013D00040090C948B095F3FE4F3983ED4F3869563
:1013E00077956795B795F795E7959F5FC1F7FE2BC2
:1013F000880F911D9695879597F90895A1E21A2E69
:10140000AA1BBB1BFD010DC0AA1FBB1FEE1FFF1FA8
:10141000A217B307E407F50720F0A21BB30BE40BF8
:10142000F50B661F771F881F991F1A9469F760953F
:101430007095809590959B01AC01BD01CF010895F9
:10144000EE0FFF1F0590F491E02D0994F894FFCF63
:10145000000000002301A401C4007001F500D300C6
:10146000E700000000005505A401B503B40354656E
:101470006D70657261747572613A200043C2B0008C
:0C14800048756D656461643A2000250029
:107E0000112484B714BE81FFF0D085E080938100F7
:107E100082E08093C00088E18093C10086E0809377
:107E2000C20080E18093C4008EE0C9D0259A86E02C
:107E300020E33CEF91E0309385002093840096BBD3
:107E4000B09BFECF1D9AA8958150A9F7CC24DD24C4
:107E500088248394B5E0AB2EA1E19A2EF3E0BF2EE7
:107E6000A2D0813461F49FD0082FAFD0023811F036
:107E7000013811F484E001C083E08DD089C08234E0
:107E800011F484E103C0853419F485E0A6D080C0E4
:107E9000853579F488D0E82EFF2485D0082F10E0AE
:107EA000102F00270E291F29000F111F8ED06801E7
:107EB0006FC0863521F484E090D080E0DECF843638
:107EC00009F040C070D06FD0082F6DD080E0C81688
:107ED00080E7D80618F4F601B7BEE895C0E0D1E017
:107EE00062D089930C17E1F7F0E0CF16F0E7DF06D8
:107EF00018F0F601B7BEE89568D007B600FCFDCFD4
:107F0000A601A0E0B1E02C9130E011968C91119780
:107F100090E0982F8827822B932B1296FA010C0160
:107F200087BEE89511244E5F5F4FF1E0A038BF0790
:107F300051F7F601A7BEE89507B600FCFDCF97BE46
:107F4000E89526C08437B1F42ED02DD0F82E2BD052
:107F50003CD0F601EF2C8F010F5F1F4F84911BD097
:107F6000EA94F801C1F70894C11CD11CFA94CF0C13
:107F7000D11C0EC0853739F428D08EE10CD085E9AC
:107F80000AD08FE07ACF813511F488E018D01DD067
:107F900080E101D065CF982F8091C00085FFFCCF94
:107FA0009093C60008958091C00087FFFCCF809118
:107FB000C00084FD01C0A8958091C6000895E0E648
:107FC000F0E098E1908380830895EDDF803219F02E
:107FD00088E0F5DFFFCF84E1DECF1F93182FE3DFCA
:107FE0001150E9F7F2DF1F91089580E0E8DFEE27F6
:047FF000FF270994CA
:027FFE00040479
:00000001FF
