:100000000C943E010C946F010C946F010C946F01E1
:100010000C946F010C946F010C946F010C946F01A0
:100020000C946F010C946F010C946F010C946F0190
:100030000C946F010C946F010C946F010C946F0180
:100040000C946F010C946F010C946F010C946F0170
:100050000C946F010C946F010C946F010C94970831
:100060000C946F010C9461080C9437080C946F0188
:100070000C946F010C946F010C946F010C946F0140
:100080000C946F010C946F010C946F010C946F0130
:100090000C946F010C946F010C946F010C946F0120
:1000A0000C946F010C946F010C946F010C946F0110
:1000B0000C946F010C946F010C946F010C946F0100
:1000C0000C946F010C946F010C946F010C946F01F0
:1000D0000C946F010C946F010C946F010C946F01E0
:1000E0000C946F010C9451030C9480020C94CD027B
:1000F0000C9481030C9469030C9457030C946103D2
:100100000C94A9010C947D030C945B030C944E0396
:100110000C94E1080C943A020C946F030C94AA011D
:100120000C944A030C94C3060C9473030C9442037E
:100130000C947E050C94E6010C94EF100C9446038D
:100140000C9477030C943C030C9465030C947C038F
:100150000C9448020C94D7010000210024002700D1
:100160002A002D00300033000101000004010701C6
:100170000A0100002200250028002B002E0031007B
:10018000340002010000050108010B0100000A0B08
:1001900002090C0D0E080703040100000000000016
:1001A000000000000000000000000000000000004F
:1001B000000000000000000012111000000000000C
:1001C000000000000000000000000000000000002F
:1001D0000000000020002300260029002C002F0032
:1001E00032000001000003010601090105050505B3
:1001F000070508080808020202020A0A080804049F
:1002000004040101010101010101030303030303CC
:100210000303040707070C0C0C0C0C0C0C0C02025B
:10022000020206060606060606060B0B0B0B0B0B58
:100230000B0B0102102020080810204010204080E5
:10024000020102010804020101020408102040809A
:100250008040201008040201800402018040201028
:100260000804020108040201010204081020408071
:100270000102040810204080E108EF1011241FBE85
:10028000CFEFD1E2DEBFCDBF00E00CBF23E0ACEC8E
:10029000B2E001C01D92A53BB207E1F712E0A0E079
:1002A000B2E0ECE6FAE200E00BBF02C007900D926C
:1002B000AC3CB107D9F711E0CDE3D1E000E006C0D6
:1002C00021970109802FFE010E94C612CC33D1076D
:1002D00080E00807A9F70E9451090C9424150C949A
:1002E0000000CF92DF92EF92FF92CF93DF93B09115
:1002F0009F03A0E08111AB2F8091A00390E0880FB5
:10030000991FAC014E525E4FC090A503D090A6033A
:10031000E090A703F090A80330E020E0FA01C59137
:10032000D491E881B90190E080E0EB23EA130AC0A0
:100330002F5F3F4F6C157D058E059F0578F36FEF9E
:100340007FEFCB01DF91CF91FF90EF90DF90CF90C7
:1003500008950895AF92BF92CF92DF92EF92FF92ED
:100360000F931F93CF93DF936C017B018B01040FDD
:10037000151FEB015E01AE18BF08C017D10759F079
:100380006991D601ED91FC910190F081E02DC601BB
:100390001995892B79F7C501DF91CF911F910F91A5
:1003A000FF90EF90DF90CF90BF90AF900895FC0149
:1003B000538D448D252F30E0842F90E0821B930BCA
:1003C000541710F0CF96089501970895FC01918D70
:1003D000828D981761F0A28DAE0FBF2FB11D5D9673
:1003E0008C91928D9F5F9F73928F90E008958FEF15
:1003F0009FEF08952FB7F8948091DF029091E0026B
:10040000A091E102B091E2022FBF8093EB029093A2
:10041000EC02A093ED02B093EE0283EE92E00E9414
:10042000E60197FF26C02FB7F8948091DF029091E4
:10043000E002A091E102B091E2022FBF4091EB02F5
:100440005091EC026091ED027091EE02841B950BCD
:10045000A60BB70B4091E7025091E8026091E902C8
:100460007091EA0284179507A607B707B0F28FEFDD
:100470009FEF0895FC01918D828D981731F0828D48
:10048000E80FF11D858D90E008958FEF9FEF08959F
:10049000FC01918D228D892F90E0805C9F4F821B03
:1004A00091098F739927089583EE92E00E94480284
:1004B00021E0892B09F420E0822F0895FC01A48D0E
:1004C000A80FB92FB11DA35ABF4F2C91848D90E076
:1004D00001968F739927848FA689B7892C93A08959
:1004E000B1898C91837080648C93938D848D9813E3
:1004F00006C00288F389E02D80818F7D8083089576
:10050000EF92FF920F931F93CF93DF93EC0181E063
:10051000888F9B8D8C8D98131AC0E889F98980810A
:1005200085FF15C09FB7F894EE89FF896083E8893D
:10053000F98980818370806480839FBF81E090E02F
:10054000DF91CF911F910F91FF90EF900895F62EBC
:100550000B8D10E00F5F1F4F0F731127E02E8C8D56
:100560008E110CC00FB607FCFACFE889F98980819B
:1005700085FFF5CFCE010E945E02F1CFEB8DEC0F2F
:10058000FD2FF11DE35AFF4FF0829FB7F8940B8FB8
:10059000EA89FB8980818062CFCFCF93DF93EC0122
:1005A000888D8823B9F0AA89BB89E889F9898C915B
:1005B00085FD03C0808186FD0DC00FB607FCF7CF17
:1005C0008C9185FFF2CF808185FFEDCFCE010E9417
:1005D0005E02E9CFDF91CF91089580E090E0892B12
:1005E00029F00E94540281110E94000080E090E0F6
:1005F000892B49F080E090E0892B29F00E940000CF
:1006000081110E94000080E090E0892B49F080E099
:1006100090E0892B29F00E94000081110E940000C7
:1006200080E090E0892B49F080E090E0892B29F070
:100630000E94000081110C940000089581508231C5
:1006400008F05AC0E82FF0E08827E65DFC4F8F4F96
:100650000C94C6124A034E033C03420346037C0338
:10066000510357035B036103650369036F0373035E
:100670007C0377037D038103809180008F778093D3
:1006800080000895809180008F7DF9CF8091800057
:10069000877FF5CF84B58F7784BD089584B58F7D2E
:1006A000FBCF8091B0008F778093B0000895809148
:1006B000B0008F7DF9CF809190008F77809390006C
:1006C0000895809190008F7DF9CF80919000877F71
:1006D000F5CF8091A0008F778093A000089580913E
:1006E000A0008F7DF9CF8091A000877FF5CF80910A
:1006F00020018F77809320010895809120018F7DC4
:10070000F9CF80912001877FF5CFCF93DF93282FFA
:1007100030E0F901E457FE4F8491F901EE5CFD4FA2
:10072000D491F901E451FE4FC491CC23A1F0811181
:100730000E941E03EC2FF0E0EE0FFF1FEE52FE4F63
:10074000A591B491EC91ED2381E090E009F480E073
:10075000DF91CF91089580E090E0FACF1F93CF937F
:10076000DF93282F30E0F901E457FE4F8491F9011F
:10077000EE5CFD4FD491F901E451FE4FC491CC23BE
:10078000A9F0162F81110E941E03EC2FF0E0EE0F4E
:10079000FF1FEE58FE4FA591B4918FB7F894EC91DE
:1007A000111108C0D095DE23DC938FBFDF91CF916C
:1007B0001F910895DE2BF8CFCF93DF9390E0FC01DB
:1007C000EE5CFD4F249184519E4FFC01849188235F
:1007D000C9F090E0880F991FFC01E85AFE4FA591DF
:1007E000B491FC01EE58FE4FC591D49161110DC03A
:1007F0009FB7F8948C91209582238C93888128232D
:1008000028839FBFDF91CF910895623051F49FB745
:10081000F8943C91822F809583238C93E8812E2B32
:10082000EFCF8FB7F894EC912E2B2C938FBFEACF9C
:100830003FB7F8948091CD029091CE02A091CF0263
:10084000B091D00226B5A89B05C02F3F19F00196A4
:10085000A11DB11D3FBFBA2FA92F982F8827BC011A
:10086000CD01620F711D811D911D42E0660F771F42
:10087000881F991F4A95D1F708958F929F92AF9242
:10088000BF92CF92DF92EF92FF924B015C010E94E8
:1008900018046B017C010E9418046C197D098E09F3
:1008A0009F09683E734081059105A8F321E0821AF3
:1008B0009108A108B10888EEC80E83E0D81EE11C9B
:1008C000F11C81149104A104B10429F7FF90EF9069
:1008D000DF90CF90BF90AF909F908F900895CF9270
:1008E000DF92EF92FF920F931F93CF93DF93CDB7D9
:1008F000DEB7C054D1400FB6F894DEBF0FBECDBFF7
:100900002FB7F8948091DF029091E002A091E1026C
:10091000B091E2022FBF4091A1035091A2036091D8
:10092000A3037091A4038C019D01041B150B260BDE
:10093000370BB901A801403D57406105710590F49E
:100940008091A903C05CDE4F0FB6F894DEBF0FBEE6
:10095000CDBFDF91CF911F910F91FF90EF90DF906E
:10096000CF9008958093A1039093A203A093A30333
:10097000B093A40310929C0310929B0310929A03CD
:10098000109299031092980362E080919D030E9457
:10099000DC0361E070E080E090E00E943D0461E0F3
:1009A00080919D030E94DC0360E080919D030E9482
:1009B000AE0380919E038551823020F58BE291E158
:1009C0000197F1F762E080919D030E94DC03809122
:1009D000AA0390E08230910538F0880F991F880FA4
:1009E000991F05970197F1F7F89480E00E94710133
:1009F0006F3F7F4F8F4F9F4F61F41092A903789400
:100A000080E0A0CF64E170E080E090E00E943D04CF
:100A1000D9CF81E00E9471016F3F7F4F8F4F9F4F71
:100A200061F38E010F5F1F4F6E018FEBC81A8EEFBF
:100A3000D80A780180E00E947101F7016083718318
:100A40008283938381E00E947101F701648375833F
:100A500086839783F8E0EF0EF11CEC14FD0451F748
:100A6000789430E020E0F801C080D180E280F3800B
:100A70004481558166817781FFEFCF16DF06EF064F
:100A8000FF0631F04F3F8FEF58076807780719F4DA
:100A90001092A903B5CFF90183E0F595E7958A9502
:100AA000E1F7E856FC4F8081880FC416D506E606AC
:100AB000F70610F180832F5F3F4F085F1F4F2832EA
:100AC000310589F640919C03209198038091990308
:100AD000280F3327331F80919A03280F311D8091EF
:100AE0009B03820F932F911D99274817190681F6B2
:100AF00081E08093A90326CF8160DCCF90E080E085
:100B00000895CF93DF93EC0160E08E810E94AE03E5
:100B100061E08E810E94AE0360E08E810E94AE0390
:100B20008BE891E00197F1F7DF91CF910895CF9293
:100B3000DF92EF92FF920F931F93CF93DF936C019D
:100B40007C0187E0E80EF11CD0E0C0E0062F10E049
:100B5000B8010C2E02C0759567950A94E2F7617092
:100B6000F70181917F010E94AE032196C430D10527
:100B700079F7C601DF91CF911F910F91FF90EF9010
:100B8000DF90CF900C948105CF92DF92EF92FF928D
:100B90000F931F93CF93DF93EC01F62E642F8C817C
:100BA0000E94AE038D818F3F19F060E00E94AE037A
:100BB0000F2D10E08F8584FF25C06E0187E0C80EE1
:100BC000D11CF12CE12CB8010E2C02C07595679553
:100BD0000A94E2F76170F60181916F010E94AE0301
:100BE000FFEFEF1AFF0A88E0E816F10461F7CE0183
:100BF000DF91CF911F910F91FF90EF90DF90CF90F9
:100C00000C948105B80184E0759567958A95E1F7A4
:100C1000CE010E9497056F2DCE01DF91CF911F91DC
:100C20000F91FF90EF90DF90CF900C94970540E0EC
:100C3000682F80E893E00C94C405CF93DF93823053
:100C400029F490918F03986090938F03809393037E
:100C50001092940380E48093950380E1809396033F
:100C600080E58093970361E0809184030E94DC0318
:100C7000809185038F3F19F061E00E94DC0361E001
:100C8000809186030E94DC03C0E8D3E09E012058D7
:100C9000334080918F0384FD0BC084E090E0219667
:100CA0002817390744F461E08E810E94DC03EECFFF
:100CB00088E090E0F4CF8BE39DE00197F1F760E0EE
:100CC000809184030E94AE0360E0809186030E94BD
:100CD000AE03809185038F3F19F060E00E94AE0360
:100CE00080918F0384FD39C063E080E893E00E9427
:100CF0009705CBE4D6E4CE010197F1F763E080E8F5
:100D000093E00E9497052197F1F763E080E893E074
:100D10000E94970583E592E00197F1F762E080E891
:100D200093E00E94970580918F0380620E941706CE
:100D300084E0809390038CE00E94170681E00E947B
:100D400017068BE39FE10197F1F782E0809391030F
:100D500086E0DF91CF910C94170680620E941706FF
:100D60008BE496E40197F1F780918F0380620E94F3
:100D7000170683E592E00197F1F780918F03806277
:100D80000E941706D0CF41E00E94C40581E090E0A8
:100D90000895CF93DF93FC0101900020E9F731978C
:100DA000AF01481B590BBC0183EE92E00E94AA01DF
:100DB000EC0142E050E06AE272E083EE92E00E94D1
:100DC000AA018C0F9D1FDF91CF910895FC018081B6
:100DD0009181009711F00C946A130895CF93DF93DB
:100DE000DC0114962D913C911597232B79F0FB0192
:100DF000CD91DC9160817181CE010E940A1500972E
:100E000029F08C1B9D0BDF91CF9108958FEF9FEF01
:100E1000FACFFB0144815581FC01248135812417DF
:100E2000350778F080819181009759F0FB0160814E
:100E300071816115710529F00E94ED1421E0892B63
:100E400009F020E0822F0895FC0124813581232BB5
:100E500039F421E0FB018081882349F020E007C0BC
:100E6000808191810E94DD1421E0892BB9F7822FC6
:100E700008950F931F93CF93DF93EC01888199819D
:100E8000009759F02A813B812617370730F081E01F
:100E9000DF91CF911F910F9108958B016F5F7F4F6D
:100EA0000E94F313009759F0998388831B830A8368
:100EB0002C813D81232B59F7FC011082E8CF80E083
:100EC000E7CFEF92FF920F931F93CF93DF936115BC
:100ED000710541F480E0DF91CF911F910F91FF9058
:100EE000EF90089541155105B1F07B01EC010C81A3
:100EF0001D81040F151FB8010E943907882351F383
:100F0000288139818C819D81B701820F931F0E94B6
:100F1000E6141D830C8381E0DECFCF93DF93EC01D9
:100F2000FB0144815581608171810E9461078111BB
:100F30000CC088819981009711F00E946A13198270
:100F400018821D821C821B821A82CE01DF91CF91F2
:100F50000895EF92FF920F931F93CF93DF93EC01CD
:100F60007B018A01BA010E943907288139818111E8
:100F700014C02115310519F0C9010E946A131982A4
:100F800018821D821C821B821A82CE01DF91CF91B2
:100F90001F910F91FF90EF9008951D830C83B7016F
:100FA000C9010E94E614F1CFEF92FF920F931F93B5
:100FB000CF93DF93CDB7DEB762970FB6F894DEBF5D
:100FC0000FBECDBF8C01CB01F801118210821382BC
:100FD0001282158214824AE09E012F5F3F4F7901F1
:100FE000B9010E94F310F70101900020E9F7319751
:100FF000AF014E195F09B701C8010E94A9076296A7
:101000000FB6F894DEBF0FBECDBFDF91CF911F9119
:101010000F91FF90EF900895FB01DC0111961C9257
:101020001E9213961C921E92129715961C921E9257
:1010300014978617970749F06081718161157105D2
:1010400021F0448155810C94A9070895FC01118277
:1010500010821382128215821482FB0101900020FB
:10106000E9F73197AF01461B570B0C94A9071F9264
:101070000F920FB60F9211240BB60F922F933F933E
:101080004F935F936F937F938F939F93AF93BF9390
:10109000EF93FF9383EE92E00E945E02FF91EF9147
:1010A000BF91AF919F918F917F916F915F914F9180
:1010B0003F912F910F900BBE0F900FBE0F901F907E
:1010C00018951F920F920FB60F9211240BB60F9224
:1010D0002F938F939F93EF93FF93E091F302F091FF
:1010E000F4028081E091F902F091FA0282FD1DC0C4
:1010F00090818091FC028F5F8F732091FD02821797
:1011000041F0E091FC02F0E0ED51FD4F958F8093AE
:10111000FC02FF91EF919F918F912F910F900BBE49
:101120000F900FBE0F901F9018958081F2CF1F92E5
:101130000F920FB60F9211242F933F938F939F938B
:10114000AF93BF938091DF029091E002A091E10202
:10115000B091E2023091CC0223E0230F2D3758F5F5
:101160000196A11DB11D2093CC028093DF029093C4
:10117000E002A093E102B093E2028091CD0290914F
:10118000CE02A091CF02B091D0020196A11DB11D57
:101190008093CD029093CE02A093CF02B093D00261
:1011A000BF91AF919F918F913F912F910F900FBE63
:1011B0000F901F90189526E8230F0296A11DB11DD0
:1011C000D2CFE3EEF2E01382128288EE93E0A0E049
:1011D000B0E084839583A683B78380E192E0918316
:1011E000808385EC90E09587848784EC90E09787F6
:1011F000868780EC90E0918B808B81EC90E0938BE4
:10120000828B82EC90E0958B848B86EC90E0978BC0
:10121000868B118E128E138E148E6CE272E08BEA26
:1012200093E00E942608A8E9B3E083E015968C932A
:1012300015978BE016968C931697E5E3F2E0E49110
:101240001796EC931797EFEEF1E0E4911896EC9374
:10125000189740E85EE360E070E01D964D935D9363
:101260006D937C935097E0E8F3E01382128282E260
:1012700092E09183808384E084838FEF858385E08F
:10128000868386E0878387E0808788E0818789E09E
:1012900082871386148615861686178681E00C943D
:1012A0001D06CF93DF93CDB7DEB768970FB6F894DE
:1012B000DEBF0FBECDBF789484B5826084BD84B597
:1012C000816084BD85B5826085BD85B5816085BD41
:1012D00080916E00816080936E00109281008091F9
:1012E0008100826080938100809181008160809381
:1012F0008100809180008160809380008091B100A6
:1013000084608093B1008091B00081608093B000D0
:101310008091910082608093910080919100816022
:1013200080939100809190008160809390008091E3
:10133000A10082608093A1008091A10081608093D0
:10134000A1008091A00081608093A0008091210184
:10135000826080932101809121018160809321012D
:101360008091200181608093200180917A008460C7
:1013700080937A0080917A00826080937A008091D5
:101380007A00816080937A0080917A0080688093EF
:101390007A001092C10062E080919D030E94DC03FC
:1013A0002FB7F8948091DF029091E002A091E102C2
:1013B000B091E2022FBF805D9740A109B1098093EF
:1013C000A1039093A203A093A303B093A40387E384
:1013D0008093AA0382E00E941D06E091F302F0913F
:1013E000F40282E08083E091EF02F091F00210823B
:1013F000E091F102F091F2028FEC80831092FB02F7
:10140000E091F702F091F80286E08083E091F50226
:10141000F091F602808180618083E091F502F09185
:10142000F602808188608083E091F502F091F602F7
:10143000808180688083E091F502F091F6028081DE
:101440008F7D808361E082E30E94DC0361E083E3BF
:101450000E94DC0361E085E30E94DC0361E084E339
:101460000E94DC0361E086E10E94DC0361E087E129
:101470000E94DC0361E088E10E94DC0361E089E115
:101480000E94DC0361E08AE10E94DC0361E08BE101
:101490000E94DC0361E08CE10E94DC0361E08DE1ED
:1014A0000E94DC0360E086E30E94DC0360E087E3E7
:1014B0000E94DC0360E088E30E94DC0360E089E3D3
:1014C0000E94DC0360E08DE30E94DC0360E08CE3BB
:1014D0000E94DC0360E08BE30E94DC0360E08AE3AF
:1014E0000E94DC0360E08EE30E94DC0361E08FE396
:1014F0000E94DC0361E080E40E94DC0361E081E49F
:101500000E94DC0360E08AE00E94DC0311E09BE3C0
:10151000E92E9FE1F92E83EE92E00E944802181610
:1015200019060CF0CAC36DB67EB66CE272E0CE014D
:1015300001960E9426080E94FA0197FD0CC08F8335
:10154000188641E050E0BE01695F7F4FCE010196F1
:101550000E946107F0CF8091AB039091AC0300979C
:1015600009F485C069817A816115710509F47DC02E
:101570004091AD035091AE032D813E814217530738
:1015800008F473C00E94E6148D819E819093B0038D
:101590008093AF031E821D82CE0101960E94E60653
:1015A0008090AF039090B003C40101962DB73EB771
:1015B000281B390B0FB6F8943EBF0FBE2DBFEDB7F9
:1015C000FEB731965F01892B29F08114910409F04F
:1015D00065C010826CE272E0CE0143960E9426083C
:1015E000F50181915F01882309F45EC38B3309F013
:1015F0004FC3BE016D5E7F4FCE010D960E940C0859
:101600006DE272E0CE0101960E942608BE016F5F76
:101610007F4FCE010D960E940907082FCE0101963B
:101620000E94E606002309F450C0BE01635F7F4FAD
:10163000CE0101960E940C086FE272E0CE01019685
:101640000E9424078823B1F11092040260E085E330
:101650000E94AE0360E084E30E94AE0360E083E397
:101660000E94AE0360E082E35EC00E946A1389813B
:101670009A819093AC038093AB038B819C81909370
:10168000AE038093AD038D819E819093B0038093D0
:10169000AF031A8219821C821B827CCF6091AB033C
:1016A0007091AC03A401CF010E94FB14F501E80D79
:1016B000F91D8FCF109304021093030210930202BE
:1016C0001093010210930002C1CF65E372E0CE01D6
:1016D00001960E942608BE016F5F7F4FCE010D96D6
:1016E0000E940907082FCE0101960E94E6060023FA
:1016F00059F1BE01635F7F4FCE0101960E940C0835
:1017000067E372E0CE0101960E94240761E0811137
:1017100009C06FE372E0CE0101960E94240788237E
:1017200039F060E084E30E94AE03CE01019696C0DA
:1017300068E472E0CE0101960E94240761E0811105
:1017400001C060E085E3EFCF62E572E0CE01019673
:101750000E942608BE016F5F7F4FCE010D960E944A
:101760000907082FCE0101960E94E606002321F109
:10177000BE01635F7F4FCE0101960E940C0864E5B5
:1017800072E0CE0101960E94240761E081116BCFC7
:101790006CE572E0CE0101960E942407811162CFB0
:1017A00065E672E0CE0101960E94240761E0811196
:1017B00001C060E083E3B7CF6FE672E0CE0101962F
:1017C0000E942608BE016F5F7F4FCE010D960E94DA
:1017D0000907082FCE0101960E94E606002309F4AE
:1017E000DCC1BE01635F7F4FCE0107960E940C08EB
:1017F0008091DD02811130C061E772E0CE01019677
:101800000E942608BE016F5F7F4FCE0107960E949F
:10181000EE064C01CE0101960E94E606181419044A
:101820009CF562E372E0CE0101960E942608BE019B
:101830006F5F7F4FCE0107960E94EE064C01CE01EE
:1018400001960E94E60618141904BCF461E086E1D2
:101850000E94AE031093DC02CE0107960E94E606BA
:10186000CE010D960E94E60650E040E06CE272E088
:10187000CE0143960E94A907B3CE60E086E10E94A4
:10188000AE031092DC02E8CF63E772E0CE0101966E
:101890000E942608BE016F5F7F4FCE0107960E940F
:1018A000EE064C01CE0101960E94E60618141904BA
:1018B0001CF562E372E0CE0101960E942608BE018B
:1018C0006F5F7F4FCE0107960E94EE064C01CE015E
:1018D00001960E94E606181419043CF461E087E1C1
:1018E0000E94AE031093DB02B7CF60E087E10E9455
:1018F000AE031092DB02B0CF65E772E0CE01019635
:101900000E942608BE016F5F7F4FCE0107960E949E
:10191000EE064C01CE0101960E94E6061814190449
:101920001CF562E372E0CE0101960E942608BE011A
:101930006F5F7F4FCE0107960E94EE064C01CE01ED
:1019400001960E94E606181419043CF461E088E14F
:101950000E94AE031093DA027FCF60E088E10E941C
:10196000AE031092DA0278CF67E772E0CE010196FB
:101970000E942608BE016F5F7F4FCE0107960E942E
:10198000EE064C01CE0101960E94E60618141904D9
:101990001CF562E372E0CE0101960E942608BE01AA
:1019A0006F5F7F4FCE0107960E94EE064C01CE017D
:1019B00001960E94E606181419043CF461E089E1DE
:1019C0000E94AE031093D90247CF60E089E10E94E4
:1019D000AE031092D90240CF69E772E0CE010196C2
:1019E0000E942608BE016F5F7F4FCE0107960E94BE
:1019F000EE064C01CE0101960E94E6061814190469
:101A00001CF562E372E0CE0101960E942608BE0139
:101A10006F5F7F4FCE0107960E94EE064C01CE010C
:101A200001960E94E606181419043CF461E08AE16C
:101A30000E94AE031093D8020FCF60E08AE10E94AB
:101A4000AE031092D80208CF6BE772E0CE01019688
:101A50000E942608BE016F5F7F4FCE0107960E944D
:101A6000EE064C01CE0101960E94E60618141904F8
:101A70001CF562E372E0CE0101960E942608BE01C9
:101A80006F5F7F4FCE0107960E94EE064C01CE019C
:101A900001960E94E606181419043CF461E08BE1FB
:101AA0000E94AE031093D702D7CE60E08BE10E9474
:101AB000AE031092D702D0CE6DE772E0CE01019650
:101AC0000E942608BE016F5F7F4FCE0107960E94DD
:101AD000EE064C01CE0101960E94E6061814190488
:101AE0001CF562E372E0CE0101960E942608BE0159
:101AF0006F5F7F4FCE0107960E94EE064C01CE012C
:101B000001960E94E606181419043CF461E08CE189
:101B10000E94AE031093D6029FCE60E08CE10E943B
:101B2000AE031092D60298CE6FE772E0CE01019616
:101B30000E942608BE016F5F7F4FCE0107960E946C
:101B4000EE064C01CE0101960E94E6061814190417
:101B50000CF082CE62E372E0CE0101960E9426086C
:101B6000BE016F5F7F4FCE0107960E94EE064C01CB
:101B7000CE0101960E94E606181419043CF461E0B7
:101B80008DE10E94AE031093D50266CE60E08DE138
:101B90000E94AE031092D5025FCE61E872E0CE01E2
:101BA00001960E942608BE016F5F7F4FCE010D9601
:101BB0000E940907082FCE0101960E94E606BE0189
:101BC000635F7F4FCE010196002309F44BC00E9452
:101BD0000C0863E872E0CE0101960E942407882376
:101BE00009F11093DD0261E086E10E94AE0361E03D
:101BF00087E10E94AE0361E088E10E94AE0361E0EC
:101C000089E10E94AE0361E08AE10E94AE0361E0D7
:101C10008BE10E94AE0361E08CE10E94AE0361E0C3
:101C20008DE181CD1092DD0260E086E10E94AE037D
:101C300060E087E10E94AE0360E088E10E94AE03AD
:101C400060E089E10E94AE0360E08AE10E94AE0399
:101C500060E08BE10E94AE0360E08CE10E94AE0385
:101C600060E0DECF0E940C0868E872E0CE010196C9
:101C70000E942407882349F01093DE0261E08FE37D
:101C80000E94AE0360E080E44ECD1092DE024DCDA6
:101C900089831A8241E050E0BE016F5F7F4FCE0121
:101CA00043960E9461079CCCCE0143960E94E606B3
:101CB0000FB6F8947EBE0FBE6DBE0E946F048823DF
:101CC00049F080919E038B3028F08D3040F0855193
:101CD0008230C8F160E070E080EC9FE71CC060914A
:101CE000990370E090E080E00E942A112DEC3CEC1A
:101CF0004CEC5DE30E9465114B015C01609198031F
:101D000070E090E080E00E942A119B01AC01C501C7
:101D1000B4010E9424120E9490124B017093D402CD
:101D20006093D3020E946F04882341F080919E0348
:101D30008C3009F4DEC1C8F48B3081F160E070E0D2
:101D400080EC9FE753C060919803709199037627C8
:101D50006727762790E080E00E9428112DEC3CEC6C
:101D60004CEC5DE30E946511D6CF8551823030F78F
:101D700000919A03602F70E0762F662766277F77A1
:101D800080919B03682B90E080E00E9428112DEC4D
:101D90003CEC4CEC5DE30E946511C7C160919A0375
:101DA00070E090E080E00E9428112B013C0100913E
:101DB0009B0307FF0AC0AC019B0160E070E080E874
:101DC0009FEB0E9423122B013C010F70602F70E0EB
:101DD00090E080E00E942A112DEC3CEC4CEC5DE39D
:101DE0000E946511A30192010E9424120E94901288
:101DF0002B017093D2026093D10281E00E941706FA
:101E0000C7010197F1F7E1E0809193038111E0E0D0
:101E1000E195F0E0E058FC4F848980680E94170645
:101E20006DE872E0CE0101960E942608B201CE0153
:101E300007960E94D40761E972E0CE0143960E94A2
:101E40002608BE016D5E7F4FCE010D960E940C08E4
:101E5000BE01695F7F4FCE010D960E948D07BE01C6
:101E60006F5F7F4F0E948D07FC0144815581608127
:101E7000718180E893E00E94AA01CE010D960E9434
:101E8000E606CE0143960E94E606CE0107960E9422
:101E9000E606CE0101960E94E606E0919303E23049
:101EA00008F047C1E150F0E0E058FC4F84898068B9
:101EB0000E9417066FE972E0CE0101960E94260883
:101EC000B401CE0107960E94D40761EA72E0CE0108
:101ED00043960E942608BE016D5E7F4FCE010D968F
:101EE0000E940C08BE01695F7F4FCE010D960E94D3
:101EF0008D07BE016F5F7F4F0E948D07FC014481FB
:101F000055816081718180E893E00E94AA01CE0131
:101F10000D960E94E606CE0143960E94E606CE018B
:101F200007960E94E606CE0101960E94E606809181
:101F300004028823F1F18091D3029091D4029C0194
:101F4000285231092531310508F0F5C060E085E3FC
:101F50000E94AE0360E084E30E94AE03809102021F
:101F6000882341F010930302109202028BEA92E060
:101F70000E94C9068091D1029091D2029C01235106
:101F800031092730310508F0F5C060E083E30E9495
:101F9000AE0360E082E30E94AE03809100028823DA
:101FA00041F0109200021093010289EB92E00E942E
:101FB000C9068091DD02811162C08091DC0281112D
:101FC00007C086E30E948503682F86E10E94AE0366
:101FD0008091DB02811107C087E30E948503682F8F
:101FE00087E10E94AE038091DA02811107C088E385
:101FF0000E948503682F88E10E94AE038091D90278
:10200000811107C089E30E948503682F89E10E943E
:10201000AE038091D802811107C08DE30E94850331
:10202000682F8AE10E94AE038091D702811107C018
:102030008CE30E948503682F8BE10E94AE038091A0
:10204000D602811107C08BE30E948503682F8CE1C3
:102050000E94AE038091D502811107C08AE30E94DD
:102060008503682F8DE10E94AE038EE30E948503F5
:102070001816190624F461E08DE10E94AE038EE388
:102080000E948503181619060CF0A2C08091DE028A
:10209000811126C08AE00E948503019709F089C05A
:1020A00061E081E40E94AE0364E670E080E090E0CD
:1020B0000E943D0460E081E40E94AE0361E080E4A0
:1020C0000E94AE0360E08FE30E94AE0380910502A0
:1020D000882331F087EC92E00E94C9061092050235
:1020E00064E670E080E090E00E943D040E94ED0212
:1020F00012CA00919A03602F70E090E080E00E9485
:1021000028112B013C0160919B036F7070E090E0FF
:1021100080E00E942A112DEC3CEC4CEC5DE30E9427
:102120006511A30192010E94241207FF5FCE90580F
:102130005DCEE1E0B8CE0091030261E0CD976CF096
:1021400085E30E94AE03002309F414CF109203022A
:10215000109302028FEA92E00BCF84E30E94AE0359
:10216000002309F407CF109203021093020283EBBD
:1021700092E0FECE0091010261E04A976CF083E3A9
:102180000E94AE03002309F414CF109201021093B1
:1021900000028DEB92E00BCF82E30E94AE0300239E
:1021A00009F407CF109300021092010281EC92E033
:1021B000FECE1093050260E081E40E94AE0360E071
:1021C00080E40E94AE0361E08FE30E94AE0388CFFB
:1021D00061E08FE30E94AE0360E080E4F6CF8BEA1B
:1021E00093E00C94E606BB274A3031F4992322F49D
:1021F000BDE2909581959F4F0C94FF10BB27FB018A
:102200005527AA27880F991FAA1FA41710F0A41BEF
:1022100083955051B9F7A05DAA3308F0A95DA19349
:10222000009779F7B111B1931192CB010C94181169
:10223000DC01FC01672F71917723E1F7329704C02D
:102240007C916D9370836291AE17BF07C8F30895B8
:10225000E89409C097FB3EF4909580957095619540
:102260007F4F8F4F9F4F9923A9F0F92F96E9BB27F6
:102270009395F695879577956795B795F111F8CF72
:10228000FAF4BB0F11F460FF1BC06F5F7F4F8F4FDD
:102290009F4F16C0882311F096E911C0772321F0D3
:1022A0009EE8872F762F05C0662371F096E8862F6B
:1022B00070E060E02AF09A95660F771F881FDAF7C2
:1022C000880F9695879597F908950E9478110C9438
:1022D000E9110E94DB1138F00E94E21120F09523F1
:1022E00011F00C94D2110C94D81111240C941D12DD
:1022F0000E94FA1170F3959FC1F3950F50E0551F9E
:10230000629FF001729FBB27F00DB11D639FAA274A
:10231000F00DB11DAA1F649F6627B00DA11D661F99
:10232000829F2227B00DA11D621F739FB00DA11DBA
:10233000621F839FA00D611D221F749F3327A00D74
:10234000611D231F849F600D211D822F762F6A2F10
:1023500011249F5750409AF0F1F088234AF0EE0F75
:10236000FF1FBB1F661F771F881F91505040A9F7A2
:102370009E3F510580F00C94D2110C941D125F3FCA
:10238000E4F3983ED4F3869577956795B795F795DE
:10239000E7959F5FC1F7FE2B880F911D9695879556
:1023A00097F9089597F99F6780E870E060E00895D5
:1023B0009FEF80EC089500240A941616170618065D
:1023C0000906089500240A94121613061406050639
:1023D0000895092E0394000C11F4882352F0BB0FCA
:1023E00040F4BF2B11F460FF04C06F5F7F4F8F4F2D
:1023F0009F4F089557FD9058440F551F59F05F3F68
:1024000071F04795880F97FB991F61F09F3F79F016
:1024100087950895121613061406551FF2CF469598
:10242000F1DF08C0161617061806991FF1CF86951A
:102430007105610508940895E894BB2766277727FE
:10244000CB0197F908955058BB27AA270E943B1249
:102450000C94E9110E94DB1138F00E94E21120F087
:1024600039F49F3F19F426F40C94D8110EF4E0953A
:10247000E7FB0C94D211E92F0E94FA1158F3BA1716
:10248000620773078407950720F079F4A6F50C948A
:102490001C120EF4E0950B2EBA2FA02D0B01B901E2
:1024A00090010C01CA01A0011124FF27591B99F0CA
:1024B000593F50F4503E68F11A16F040A22F232FD6
:1024C000342F4427585FF3CF469537952795A79526
:1024D000F0405395C9F77EF41F16BA0B620B730BCD
:1024E000840BBAF09150A1F0FF0FBB1F661F771F3E
:1024F000881FC2F70EC0BA0F621F731F841F48F4F3
:10250000879577956795B795F7959E3F08F0B0CF7B
:102510009395880F08F09927EE0F97958795089562
:102520000E9497126894B1110C941D1208950E9494
:10253000021288F09F5798F0B92F9927B751B0F041
:10254000E1F0660F771F881F991F1AF0BA95C9F737
:1025500014C0B13091F00E941C12B1E008950C94A7
:102560001C12672F782F8827B85F39F0B93FCCF35A
:10257000869577956795B395D9F73EF490958095B4
:10258000709561957F4F8F4F9F4F0895EE0FFF1FFE
:10259000881F8BBF0790F691E02D19940F931F931E
:1025A000CF93DF938230910510F482E090E0E091C8
:1025B000B303F091B40330E020E0B0E0A0E0309746
:1025C00099F42115310509F44AC0281B390B243030
:1025D0003105D8F58A819B816115710589F1FB016F
:1025E00093838283FE0111C0408151810281138156
:1025F00048175907E0F04817590799F4109761F008
:1026000012960C93129713961C933296CF01DF917A
:10261000CF911F910F9108950093B3031093B403CA
:10262000F4CF2115310551F04217530738F0A901B5
:10263000DB019A01BD01DF01F801C1CFEF01F9CF44
:102640009093B4038093B303CDCFFE01E20FF31F49
:10265000819391932250310939832883D7CF2091D8
:10266000B1033091B203232B41F420910802309141
:1026700009023093B2032093B103209106023091F6
:1026800007022115310541F42DB73EB740910A02EA
:1026900050910B02241B350BE091B103F091B20372
:1026A000E217F307A0F42E1B3F0B2817390778F029
:1026B000AC014E5F5F4F2417350748F04E0F5F1F88
:1026C0005093B2034093B103819391939FCFF0E075
:1026D000E0E09CCFCF93DF930097E9F0FC013297C5
:1026E00013821282A091B303B091B403ED0130E0E4
:1026F00020E01097A1F420813181820F931F209157
:10270000B1033091B2032817390709F061C0F09383
:10271000B203E093B103DF91CF910895EA01CE17A0
:10272000DF07E8F54A815B819E0141155105B1F74C
:10273000E901FB83EA8349915991C40FD51FEC1736
:10274000FD0761F4808191810296840F951FE90154
:1027500099838883828193819B838A83F0E0E0E080
:1027600012968D919C9113970097B9F52D913C91FC
:102770001197CD010296820F931F2091B1033091E2
:10278000B2032817390739F6309751F51092B40380
:102790001092B303B093B203A093B103BCCFD38321
:1027A000C28340815181840F951FC817D90761F4F6
:1027B0004E5F5F4F88819981480F591F5183408335
:1027C0008A819B81938382832115310509F0B0CFE3
:1027D000F093B403E093B3039ECFFD01DC01C0CFBF
:1027E00013821282D7CF4F925F926F927F928F9215
:1027F0009F92AF92BF92CF92DF92EF92FF920F9390
:102800001F93CF93DF938C01009799F4CB01DF9155
:10281000CF911F910F91FF90EF90DF90CF90BF90DD
:10282000AF909F908F907F906F905F904F900C949F
:10283000CE12FC01E60FF71F9C0122503109E2176E
:10284000F30708F4AEC0D901CD91DC911197C617FA
:10285000D70720F1C530D10578F0CE01049786174F
:10286000970750F0C61BD70B2297C193D1936D9356
:102870007C93CF010E946A13C801DF91CF911F9111
:102880000F91FF90EF90DF90CF90BF90AF909F900F
:102890008F907F906F905F904F9008955B01AC1A7E
:1028A000BD0A4C018C0E9D1EA091B303B091B403E0
:1028B000512C412CF12CE12C109731F58091B10372
:1028C0009091B2038815990509F05CC04616570629
:1028D00008F058C08091060290910702009741F4D9
:1028E0008DB79EB740910A0250910B02841B950B45
:1028F000E817F90708F055C0F093B203E093B1036D
:10290000F90171836083B8CF8D919C9111971296D4
:102910006C90129713967C901397A815B90559F5EA
:102920006C0142E0C40ED11CCA14DB0420F1AC01DE
:102930004A195B09DA011296159780F06282738258
:1029400051834083D9016D937C93E114F10471F0BC
:10295000D7011396FC93EE9312978ECF22968C0F8D
:102960009D1FF90191838083F301EFCFF093B403AE
:10297000E093B30381CF4816590608F42C017D017A
:10298000D3019ACFCB010E94CE127C01009749F06F
:10299000AE01B8010E94D414C8010E946A138701D5
:1029A0006BCF10E000E068CFFB01DC0102C00190BA
:1029B0000D9241505040D8F70895FB01DC018D91F4
:1029C000019080190110D9F3990B0895FB01DC01E6
:1029D00001900D920020E1F70895FB01DC014150C8
:1029E000504030F08D910190801919F40020B9F712
:1029F000881B990B0895FB01DC014150504048F0C1
:102A000001900D920020C9F701C01D924150504025
:102A1000E0F70895FB0151915523A9F0BF01DC01B6
:102A20004D9145174111E1F759F4CD010190002076
:102A300049F04D9140154111C9F3FB014111EFCF10
:102A400081E090E00197089511E0CDE3D1E000E04E
:102A500006C0802FFE010E94C6122196011DCE33B2
:0C2A6000D10780E00807A9F7F894FFCF29
:102A6C000101010101010000B5038000000000001C
:102A7C008002AA01D701CD024802E6013A02000009
:102A8C000000C306AA017E05A9010D0A00630063BC
:102A9C003A206F6E00680068207570206F6E0068B9
:102AAC00207570206F6666006820646F776E206FEB
:102ABC006E00740074207570206F6E007420757039
:102ACC00206F6666007420646F776E206F6E006CEA
:102ADC000031003200330034003500360037003846
:102AEC0000610061206F6E006F206F6E0043C2B0FA
:102AFC000054656D70657261747572613A200025C1
:102B0C000048756D656461643A2000686F6B0068FD
:102B1C0075700068646F776E00746F6B00747570FD
:0C2B2C000074646F776E00706F6E000024
:00000001FF
