:100000000C943E010C946F010C946F010C946F01E1
:100010000C946F010C946F010C946F010C946F01A0
:100020000C946F010C946F010C946F010C946F0190
:100030000C946F010C946F010C946F010C946F0180
:100040000C946F010C946F010C946F010C946F0170
:100050000C946F010C946F010C946F010C943F0889
:100060000C946F010C9409080C94DF070C946F0139
:100070000C946F010C946F010C946F010C946F0140
:100080000C946F010C946F010C946F010C946F0130
:100090000C946F010C946F010C946F010C946F0120
:1000A0000C946F010C946F010C946F010C946F0110
:1000B0000C946F010C946F010C946F010C946F0100
:1000C0000C946F010C946F010C946F010C946F01F0
:1000D0000C946F010C946F010C946F010C946F01E0
:1000E0000C946F010C9484030C9492030C94AA0159
:1000F0000C9465030C947A030C94A0030C943A02BC
:100100000C946D030C94E6010C94780D0C948C0304
:100110000C9496030C9448020C949A030C94D70107
:100120000C9474030C944E030C9488030C945303A6
:100130000C9486060C94CD020C9489080C94A901A9
:100140000C9471030C947E030C9469030C94410588
:100150000C9480020C94A4030000210024002700CA
:100160002A002D00300033000101000004010701C6
:100170000A0100002200250028002B002E0031007B
:10018000340002010000050108010B0100000A0B08
:1001900002090C0D0E080703040100000000000016
:1001A000000000000000000000000000000000004F
:1001B000000000000000000012111000000000000C
:1001C000000000000000000000000000000000002F
:1001D0000000000020002300260029002C002F0032
:1001E00032000001000003010601090105050505B3
:1001F000070508080808020202020A0A080804049F
:1002000004040101010101010101030303030303CC
:100210000303040707070C0C0C0C0C0C0C0C02025B
:10022000020206060606060606060B0B0B0B0B0B58
:100230000B0B0102102020080810204010204080E5
:10024000020102010804020101020408102040809A
:100250008040201008040201800402018040201028
:100260000804020108040201010204081020408071
:1002700001020408102040808908780D11241FBE57
:10028000CFEFD1E2DEBFCDBF00E00CBF23E0ACEA90
:10029000B2E001C01D92AB38B207E1F712E0A0E076
:1002A000B2E0EAE4F3E200E00BBF02C007900D9277
:1002B000AC3AB107D9F711E0CDE3D1E000E006C0D8
:1002C00021970109802FFE010E944F0FCC33D107E7
:1002D00080E00807A9F70E94F9080C9493110C9488
:1002E0000000CF92DF92EF92FF92CF93DF93B09115
:1002F0007503A0E08111AB2F8091760390E0880F09
:10030000991FAC014E525E4FC0907B03D0907C038E
:10031000E0907D03F0907E0330E020E0FA01C5918B
:10032000D491E881B90190E080E0EB23EA130AC0A0
:100330002F5F3F4F6C157D058E059F0578F36FEF9E
:100340007FEFCB01DF91CF91FF90EF90DF90CF90C7
:1003500008950895AF92BF92CF92DF92EF92FF92ED
:100360000F931F93CF93DF936C017B018B01040FDD
:10037000151FEB015E01AE18BF08C017D10759F079
:100380006991D601ED91FC910190F081E02DC601BB
:100390001995892B79F7C501DF91CF911F910F91A5
:1003A000FF90EF90DF90CF90BF90AF900895FC0149
:1003B000538D448D252F30E0842F90E0821B930BCA
:1003C000541710F0CF96089501970895FC01918D70
:1003D000828D981761F0A28DAE0FBF2FB11D5D9673
:1003E0008C91928D9F5F9F73928F90E008958FEF15
:1003F0009FEF08952FB7F8948091B5029091B602BF
:10040000A091B702B091B8022FBF8093C102909320
:10041000C202A093C302B093C40289EB92E00E948F
:10042000E60197FF26C02FB7F8948091B50290910E
:10043000B602A091B702B091B8022FBF4091C1029D
:100440005091C2026091C3027091C402841B950B4B
:10045000A60BB70B4091BD025091BE026091BF0246
:100460007091C00284179507A607B707B0F28FEF07
:100470009FEF0895FC01918D828D981731F0828D48
:10048000E80FF11D858D90E008958FEF9FEF08959F
:10049000FC01918D228D892F90E0805C9F4F821B03
:1004A00091098F739927089589EB92E00E94480281
:1004B00021E0892B09F420E0822F0895FC01A48D0E
:1004C000A80FB92FB11DA35ABF4F2C91848D90E076
:1004D00001968F739927848FA689B7892C93A08959
:1004E000B1898C91837080648C93938D848D9813E3
:1004F00006C00288F389E02D80818F7D8083089576
:10050000EF92FF920F931F93CF93DF93EC0181E063
:10051000888F9B8D8C8D98131AC0E889F98980810A
:1005200085FF15C09FB7F894EE89FF896083E8893D
:10053000F98980818370806480839FBF81E090E02F
:10054000DF91CF911F910F91FF90EF900895F62EBC
:100550000B8D10E00F5F1F4F0F731127E02E8C8D56
:100560008E110CC00FB607FCFACFE889F98980819B
:1005700085FFF5CFCE010E945E02F1CFEB8DEC0F2F
:10058000FD2FF11DE35AFF4FF0829FB7F8940B8FB8
:10059000EA89FB8980818062CFCFCF93DF93EC0122
:1005A000888D8823B9F0AA89BB89E889F9898C915B
:1005B00085FD03C0808186FD0DC00FB607FCF7CF17
:1005C0008C9185FFF2CF808185FFEDCFCE010E9417
:1005D0005E02E9CFDF91CF91089580E090E0892B12
:1005E00029F00E94540281110E94000080E090E0F6
:1005F000892B49F080E090E0892B29F00E940000CF
:1006000081110E94000080E090E0892B49F080E099
:1006100090E0892B29F00E94000081110E940000C7
:1006200080E090E0892B49F080E090E0892B29F070
:100630000E94000081110C9400000895282F30E0E2
:10064000F901E457FE4F9491F901EE5CFD4F44919E
:1006500024513E4FF9012491222309F435C09923F6
:1006600011F191509231F8F4E92FF0E08827E45C21
:10067000FC4F8F4F0C944F0F6D0371034E036503B6
:100680006903530374037A037E03840388038C0392
:100690009203960353039A03A003A403809180005E
:1006A0008F7780938000E22FF0E0EE0FFF1FEE586F
:1006B000FE4FA591B4918FB7F894EC91611148C0A9
:1006C00040954E234C938FBF0895809180008F7D7D
:1006D000E8CF80918000877FE4CF84B58F7784BD99
:1006E000E2CF84B58F7DFBCF8091B0008F77809370
:1006F000B000D9CF8091B0008F7DF9CF809190006C
:100700008F7780939000CFCF809190008F7DF9CF2D
:1007100080919000877FF5CF8091A0008F778093A4
:10072000A000C1CF8091A0008F7DF9CF8091A00063
:10073000877FF5CF809120018F7780932001B3CF01
:10074000809120018F7DF9CF80912001877FF5CFA7
:100750004E2BB8CFCF93DF9390E0FC01EE5CFD4FC2
:10076000249184519E4FFC0184918823D1F090E024
:10077000880F991FFC01E85AFE4FA591B491FC0126
:10078000EE58FE4FC591D491623071F49FB7F89442
:100790003C91822F809583238C93E8812E2B288394
:1007A0009FBFDF91CF9108958FB7F894EC912E2BD6
:1007B0002C938FBFF6CF3FB7F8948091AD02909104
:1007C000AE02A091AF02B091B00226B5A89B05C0C1
:1007D0002F3F19F00196A11DB11D3FBFBA2FA92FC0
:1007E000982F8827BC01CD01620F711D811D911DBD
:1007F00042E0660F771F881F991F4A95D1F7089529
:100800008F929F92AF92BF92CF92DF92EF92FF9220
:100810004B015C010E94DB036B017C010E94DB0346
:100820006C197D098E099F09683E73408105910509
:10083000A8F321E0821A9108A108B10888EEC80E39
:1008400083E0D81EE11CF11C81149104A104B104C1
:1008500029F7FF90EF90DF90CF90BF90AF909F90DF
:100860008F900895CF92DF92EF92FF920F931F9394
:10087000CF93DF93CDB7DEB7C054D1400FB6F89415
:10088000DEBF0FBECDBF2FB7F8948091B502909117
:10089000B602A091B702B091B8022FBF4091770382
:1008A000509178036091790370917A038C019D01D6
:1008B000041B150B260B370BB901A801403D57400F
:1008C0006105710590F480917F03C05CDE4F0FB627
:1008D000F894DEBF0FBECDBFDF91CF911F910F9176
:1008E000FF90EF90DF90CF900895809377039093DF
:1008F0007803A0937903B0937A0310927203109255
:1009000071031092700310926F0310926E0362E0F5
:10091000809173030E94AA0361E070E080E090E0A0
:100920000E94000461E0809173030E94AA0360E0CA
:10093000809173030E941E0380917403855182305D
:1009400020F58BE291E10197F1F762E0809173036A
:100950000E94AA038091800390E08230910538F0D4
:10096000880F991F880F991F05970197F1F7F89441
:1009700080E00E9471016F3F7F4F8F4F9F4F61F466
:1009800010927F03789480E0A0CF64E170E080E073
:1009900090E00E940004D9CF81E00E9471016F3F76
:1009A0007F4F8F4F9F4F61F38E010F5F1F4F6E017F
:1009B0008FEBC81A8EEFD80A780180E00E9471018F
:1009C000F701608371838283938381E00E947101C8
:1009D000F7016483758386839783F8E0EF0EF11C3B
:1009E000EC14FD0451F7789430E020E0F801C08069
:1009F000D180E280F3804481558166817781FFEF69
:100A0000CF16DF06EF06FF0631F04F3F8FEF580796
:100A10006807780719F410927F03B5CFF90183E0D6
:100A2000F595E7958A95E1F7E259FC4F8081880FAB
:100A3000C416D506E606F70610F180832F5F3F4FF8
:100A4000085F1F4F2832310589F6409172032091CB
:100A50006E0380916F03280F3327331F809170033B
:100A6000280F311D80917103820F932F911D9927BB
:100A70004817190681F681E080937F0326CF8160B5
:100A8000DCCF90E080E00895CF93DF93EC0160E04D
:100A90008E810E941E0361E08E810E941E0360E031
:100AA0008E810E941E038BE891E00197F1F7DF91A0
:100AB000CF910895CF92DF92EF92FF920F931F9301
:100AC000CF93DF936C017C0187E0E80EF11CD0E04E
:100AD000C0E0062F10E0B8010C2E02C07595679596
:100AE0000A94E2F76170F70181917F010E941E0371
:100AF0002196C430D10579F7C601DF91CF911F91BE
:100B00000F91FF90EF90DF90CF900C944405CF921F
:100B1000DF92EF92FF920F931F93CF93DF93EC013D
:100B2000F62E642F8C810E941E038D818F3F19F059
:100B300060E00E941E030F2D10E08F8584FF25C00A
:100B40006E0187E0C80ED11CF12CE12CB8010E2CEF
:100B500002C0759567950A94E2F76170F60181917C
:100B60006F010E941E03FFEFEF1AFF0A88E0E816EC
:100B7000F10461F7CE01DF91CF911F910F91FF90AA
:100B8000EF90DF90CF900C944405B80184E0759508
:100B900067958A95E1F7CE010E945A056F2DCE0127
:100BA000DF91CF911F910F91FF90EF90DF90CF9049
:100BB0000C945A0540E0682F86E593E00C94870575
:100BC000CF93DF93823029F49091650398609093DE
:100BD00065038093690310926A0380E480936B033A
:100BE00080E180936C0380E580936D0361E08091E8
:100BF0005A030E94AA0380915B038F3F19F061E0C2
:100C00000E94AA0361E080915C030E94AA03C6E5EA
:100C1000D3E09E01265533408091650384FD0BC0CF
:100C200084E090E021962817390744F461E08E8132
:100C30000E94AA03EECF88E090E0F4CF8BE39DE022
:100C40000197F1F760E080915A030E941E0360E073
:100C500080915C030E941E0380915B038F3F19F01B
:100C600060E00E941E038091650384FD39C063E04B
:100C700086E593E00E945A05CBE4D6E4CE010197C5
:100C8000F1F763E086E593E00E945A052197F1F7BA
:100C900063E086E593E00E945A0583E592E00197C0
:100CA000F1F762E086E593E00E945A0580916503C2
:100CB00080620E94DA0584E0809366038CE00E94E3
:100CC000DA0581E00E94DA058BE39FE10197F1F7F5
:100CD00082E08093670386E0DF91CF910C94DA0580
:100CE00080620E94DA058BE496E40197F1F7809127
:100CF000650380620E94DA0583E592E00197F1F7CF
:100D00008091650380620E94DA05D0CF41E00E94A5
:100D1000870581E090E00895CF93DF93FC01019077
:100D20000020E9F73197AF01481B590BBC0189EB53
:100D300092E00E94AA01EC0142E050E069E272E018
:100D400089EB92E00E94AA018C0F9D1FDF91CF9149
:100D50000895FC0180819181009711F00C94F30FAC
:100D60000895FB0144815581FC01248135812417BC
:100D7000350778F080819181009759F0FB016081FF
:100D800071816115710529F00E94761121E0892B8E
:100D900009F020E0822F0895FC0124813581232B66
:100DA00039F421E0FB018081882349F020E007C06D
:100DB000808191810E94661121E0892BB9F7822FF1
:100DC00008950F931F93CF93DF93EC01888199814E
:100DD000009759F02A813B812617370730F081E0D0
:100DE000DF91CF911F910F9108958B016F5F7F4F1E
:100DF0000E947C10009759F0998388831B830A8393
:100E00002C813D81232B59F7FC011082E8CF80E033
:100E1000E7CFEF92FF920F931F93CF93DF9361156C
:100E2000710541F480E0DF91CF911F910F91FF9008
:100E3000EF90089541155105B1F07B01EC010C8153
:100E40001D81040F151FB8010E94E106882351F38C
:100E5000288139818C819D81B701820F931F0E9467
:100E60006F111D830C8381E0DECFCF93DF93EC0104
:100E7000FB0144815581608171810E9409078111C4
:100E80000CC088819981009711F00E94F30F19829C
:100E900018821D821C821B821A82CE01DF91CF91A3
:100EA0000895EF92FF920F931F93CF93DF93EC017E
:100EB0007B018A01BA010E94E106288139818111F2
:100EC00014C02115310519F0C9010E94F30F1982D0
:100ED00018821D821C821B821A82CE01DF91CF9163
:100EE0001F910F91FF90EF9008951D830C83B70120
:100EF000C9010E946F11F1CFEF92FF920F931F93E0
:100F0000CF93DF93CDB7DEB762970FB6F894DEBF0D
:100F10000FBECDBF8C01CB01F8011182108213826C
:100F20001282158214824AE09E012F5F3F4F7901A1
:100F3000B9010E947C0DF70101900020E9F731977B
:100F4000AF014E195F09B701C8010E9451076296AF
:100F50000FB6F894DEBF0FBECDBFDF91CF911F91CA
:100F60000F91FF90EF900895FB01DC0111961C9208
:100F70001E9213961C921E92129715961C921E9208
:100F800014978617970749F0608171816115710583
:100F900021F0448155810C9451070895FC01118280
:100FA00010821382128215821482FB0101900020AC
:100FB000E9F73197AF01461B570B0C9451071F926D
:100FC0000F920FB60F9211240BB60F922F933F93EF
:100FD0004F935F936F937F938F939F93AF93BF9341
:100FE000EF93FF9389EB92E00E945E02FF91EF91F5
:100FF000BF91AF919F918F917F916F915F914F9131
:101000003F912F910F900BBE0F900FBE0F901F902E
:1010100018951F920F920FB60F9211240BB60F92D4
:101020002F938F939F93EF93FF93E091C902F091D9
:10103000CA028081E091CF02F091D00282FD1DC0F2
:1010400090818091D2028F5F8F732091D30282179B
:1010500041F0E091D202F0E0E754FD4F958F80938C
:10106000D202FF91EF919F918F912F910F900BBE24
:101070000F900FBE0F901F9018958081F2CF1F9296
:101080000F920FB60F9211242F933F938F939F933C
:10109000AF93BF938091B5029091B602A091B70231
:1010A000B091B8023091AC0223E0230F2D3758F5F0
:1010B0000196A11DB11D2093AC028093B5029093BF
:1010C000B602A093B702B093B8028091AD0290919E
:1010D000AE02A091AF02B091B0020196A11DB11D68
:1010E0008093AD029093AE02A093AF02B093B00292
:1010F000BF91AF919F918F913F912F910F900FBE14
:101100000F901F90189526E8230F0296A11DB11D80
:10111000D2CFE9EBF2E01382128288EE93E0A0E0F6
:10112000B0E084839583A683B7838FE092E09183B8
:10113000808385EC90E09587848784EC90E09787A6
:10114000868780EC90E0918B808B81EC90E0938B94
:10115000828B82EC90E0958B848B86EC90E0978B71
:10116000868B118E128E138E148E6BE272E081E8E4
:1011700093E00E94CE07AEE6B3E083E015968C9331
:1011800015978BE016968C931697E5E3F2E0E491C1
:101190001796EC931797EFEEF1E0E4911896EC9325
:1011A000189740E85EE360E070E01D964D935D9314
:1011B0006D937C935097E6E5F3E01382128281E20F
:1011C00092E09183808384E084838FEF858385E040
:1011D000868386E0878387E0808788E0818789E04F
:1011E00082871386148615861686178681E00C94EE
:1011F000E005CF93DF93CDB7DEB768970FB6F894CD
:10120000DEBF0FBECDBF789484B5826084BD84B547
:10121000816084BD85B5826085BD85B5816085BDF1
:1012200080916E00816080936E00109281008091A9
:101230008100826080938100809181008160809331
:101240008100809180008160809380008091B10056
:1012500084608093B1008091B00081608093B00081
:1012600080919100826080939100809191008160D3
:101270008093910080919000816080939000809194
:10128000A10082608093A1008091A1008160809381
:10129000A1008091A00081608093A0008091210135
:1012A00082608093210180912101816080932101DE
:1012B0008091200181608093200180917A00846078
:1012C00080937A0080917A00826080937A00809186
:1012D0007A00816080937A0080917A0080688093A0
:1012E0007A001092C10062E0809173030E94AA0309
:1012F0002FB7F8948091B5029091B602A091B702F1
:10130000B091B8022FBF805D9740A109B1098093C9
:10131000770390937803A0937903B0937A0387E3DC
:101320008093800382E00E94E005E091C902F09181
:10133000CA0282E08083E091C502F091C602108269
:10134000E091C702F091C8028FEC80831092D10225
:10135000E091CD02F091CE0286E08083E091CB0255
:10136000F091CC02808180618083E091CB02F0918A
:10137000CC02808188608083E091CB02F091CC0226
:10138000808180688083E091CB02F091CC028081E3
:101390008F7D808361E082E30E94AA0361E083E3A2
:1013A0000E94AA0361E085E30E94AA0361E084E34E
:1013B0000E94AA0361E086E10E94AA0361E087E13E
:1013C0000E94AA0361E088E10E94AA0361E089E12A
:1013D0000E94AA0361E08AE10E94AA0361E08BE116
:1013E0000E94AA0361E08CE10E94AA0361E08DE102
:1013F0000E94AA030BE31FE189EB92E00E944802DE
:10140000181619060CF088C1ADB6BEB66BE272E0D4
:10141000CE0101960E94CE070E94FA0197FD0CC0F2
:101420008F83188641E050E0BE01695F7F4FCE0197
:1014300001960E940907F0CF809181039091820369
:10144000009709F485C069817A816115710509F4F5
:101450007DC040918303509184032D813E814217CA
:10146000530708F473C00E946F118D819E81909381
:101470008603809385031E821D82CE0101960E9401
:10148000A906C0908503D0908603C60101962DB7AA
:101490003EB7281B390B0FB6F8943EBF0FBE2DBFC9
:1014A000EDB7FEB731967F01892B29F0C114D10425
:1014B00009F065C010826BE272E0CE010D960E94C9
:1014C000CE07F70181917F01882309F41CC18B337A
:1014D00009F00DC1BE01635F7F4FCE0107960E94E8
:1014E000B4076CE272E0CE0101960E94CE07BE0105
:1014F0006F5F7F4FCE0107960E94B106D82ECE01B6
:1015000001960E94A906DD2009F451C0BE01695F61
:101510007F4FCE0101960E94B4076EE272E0CE01C9
:1015200001960E94CC068823B1F11092040260E07B
:1015300085E30E941E0360E084E30E941E0360E0D6
:1015400083E30E941E0360E082E35FC00E94F30F0A
:1015500089819A8190938203809381038B819C81FE
:1015600090938403809383038D819E81909386035F
:10157000809385031A8219821C821B827CCF609122
:10158000810370918203A601CF010E948411F701AB
:10159000EC0DFD1D8FCF81E0809304028093030248
:1015A000809302028093010280930002C0CF64E323
:1015B00072E0CE0101960E94CE07BE016F5F7F4FA1
:1015C000CE0107960E94B106D82ECE0101960E9448
:1015D000A906DD20C9F1BE01695F7F4FCE010196EA
:1015E0000E94B40766E372E0CE0101960E94CC0629
:1015F00061E0811109C06EE372E0CE0101960E94A4
:10160000CC068823A9F060E084E30E941E03CE018B
:1016100001960E94A906CE0107960E94A90650E0F5
:1016200040E06BE272E0CE010D960E94510749CF77
:1016300067E472E0CE0101960E94CC0661E0811160
:1016400001C060E085E3E1CF61E572E0CE01019683
:101650000E94CE07BE016F5F7F4FCE0107960E94AA
:10166000B106D82ECE0101960E94A906DD2021F1F7
:10167000BE01695F7F4FCE0101960E94B40763E50A
:1016800072E0CE0101960E94CC0661E081115CCF30
:101690006BE572E0CE0101960E94CC06811153CF1A
:1016A00064E672E0CE0101960E94CC0661E08111F1
:1016B00001C060E083E3A9CF6EE672E0CE0101963F
:1016C0000E94CE07BE016F5F7F4FCE0107960E943A
:1016D000B106D82ECE0101960E94A906D1109BCF4B
:1016E00060E772E0CE0101960E94CE0790CF898319
:1016F0001A8241E050E0BE016F5F7F4FCE010D9630
:101700000E940907DECECE010D960E94A9060FB6F3
:10171000F894BEBE0FBEADBE0E943204882349F0CD
:10172000809174038B3028F08D3040F085518230E9
:10173000C8F160E070E080EC9FE71CC060916F032F
:1017400070E090E080E00E94B30D2DEC3CEC4CEC9E
:101750005DE30E94EE0D6B017C0160916E0370E011
:1017600090E080E00E94B30D9B01AC01C701B6017F
:101770000E94AD0E0E94190F6B017093B40260932A
:10178000B3020E943204882341F0809174038C30AC
:1017900009F44AC1C8F48B3081F160E070E080EC5C
:1017A0009FE753C060916E0370916F0376276727A0
:1017B000762790E080E00E94B10D2DEC3CEC4CECE3
:1017C0005DE30E94EE0DD6CF8551823030F7B090A8
:1017D00070036B2D70E0762F662766277F778091E8
:1017E0007103682B90E080E00E94B10D2DEC3CEC81
:1017F0004CEC5DE30E94EE0D33C16091700370E02C
:1018000090E080E00E94B10D2B013C01B09071038B
:10181000B7FE0AC0AC019B0160E070E080E89FEB7E
:101820000E94AC0E2B013C016B2D6F7070E090E0BC
:1018300080E00E94B30D2DEC3CEC4CEC5DE30E948B
:10184000EE0DA30192010E94AD0E0E94190F4B01F3
:101850007093B2026093B10281E00E94DA05C80180
:101860000197F1F7E1E0809169038111E0E0E195F2
:10187000F0E0EA5AFC4F848980680E94DA0562E74A
:1018800072E0CE0101960E94CE07B401CE01079608
:101890000E947C0766E772E0CE0143960E94CE0765
:1018A000BE016D5E7F4FCE010D960E94B407BE0152
:1018B000695F7F4FCE010D960E943507BE016F5FB5
:1018C0007F4F0E943507FC01448155816081718101
:1018D00086E593E00E94AA01CE010D960E94A9061A
:1018E000CE0143960E94A906CE0107960E94A90642
:1018F000CE0101960E94A906E0916903E23008F04A
:10190000B3C0E150F0E0EA5AFC4F848980680E943D
:10191000DA0564E872E0CE0101960E94CE07B601B6
:10192000CE0107960E947C0766E872E0CE014396DE
:101930000E94CE07BE016D5E7F4FCE010D960E94C4
:10194000B407BE01695F7F4FCE010D960E94350737
:10195000BE016F5F7F4F0E943507FC0144815581B6
:101960006081718186E593E00E94AA01CE010D9607
:101970000E94A906CE0143960E94A906CE010796B1
:101980000E94A906CE0101960E94A9068091040238
:10199000882309F440C08091B3029091B4029C0165
:1019A000285231092531310508F060C060E085E337
:1019B0000E941E0360E084E30E941E0380910202E5
:1019C000882349F081E0809303021092020280E9AB
:1019D00092E00E948C068091B1029091B2029C012B
:1019E000235131092730310508F061C060E083E3FD
:1019F0000E941E0360E082E30E941E0380910002A9
:101A0000882349F01092000281E0809301028EE960
:101A100092E00E948C0668EC70E080E090E00E940A
:101A200000040E94ED02E8CCB09070036B2D70E0D2
:101A300090E080E00E94B10D2B013C0160917103A8
:101A40006F7070E090E080E00E94B30D2DEC3CECF4
:101A50004CEC5DE30E94EE0DA30192010E94AD0EDD
:101A6000B7FEF3CE9058F1CEE1E04CCFF0900302F8
:101A700061E0CD9774F085E30E941E03FF2009F416
:101A8000AACF1092030281E08093020284E992E0DF
:101A9000A0CF84E30E941E03FF2009F49CCF109284
:101AA000030281E08093020288E992E092CFF090F5
:101AB000010261E04A9774F083E30E941E03FF2055
:101AC00009F4A9CF1092010281E08093000282EA1A
:101AD00092E09FCF82E30E941E03FF2009F49BCF78
:101AE00081E0809300021092010286EA92E091CF99
:101AF00081E893E00C94A906BB274A3031F499237E
:101B000022F4BDE2909581959F4F0C94880DBB27E0
:101B1000FB015527AA27880F991FAA1FA41710F0A9
:101B2000A41B83955051B9F7A05DAA3308F0A95DB5
:101B3000A193009779F7B111B1931192CB010C9455
:101B4000A10DDC01FC01672F71917723E1F732973A
:101B500004C07C916D9370836291AE17BF07C8F388
:101B60000895E89409C097FB3EF490958095709590
:101B700061957F4F8F4F9F4F9923A9F0F92F96E9D9
:101B8000BB279395F695879577956795B795F1114E
:101B9000F8CFFAF4BB0F11F460FF1BC06F5F7F4FEB
:101BA0008F4F9F4F16C0882311F096E911C07723FD
:101BB00021F09EE8872F762F05C0662371F096E806
:101BC000862F70E060E02AF09A95660F771F881FD5
:101BD000DAF7880F9695879597F908950E94010E78
:101BE0000C94720E0E94640E38F00E946B0E20F06E
:101BF000952311F00C945B0E0C94610E11240C943F
:101C0000A60E0E94830E70F3959FC1F3950F50E0CE
:101C1000551F629FF001729FBB27F00DB11D639F9E
:101C2000AA27F00DB11DAA1F649F6627B00DA11D44
:101C3000661F829F2227B00DA11D621F739FB00DEA
:101C4000A11D621F839FA00D611D221F749F33275A
:101C5000A00D611D231F849F600D211D822F762FF3
:101C60006A2F11249F5750409AF0F1F088234AF0D0
:101C7000EE0FFF1FBB1F661F771F881F915050403C
:101C8000A9F79E3F510580F00C945B0E0C94A60EB4
:101C90005F3FE4F3983ED4F3869577956795B795C3
:101CA000F795E7959F5FC1F7FE2B880F911D9695DD
:101CB000879597F9089597F99F6780E870E060E04D
:101CC00008959FEF80EC089500240A9416161706D5
:101CD00018060906089500240A941216130614061D
:101CE00005060895092E0394000C11F4882352F080
:101CF000BB0F40F4BF2B11F460FF04C06F5F7F4F38
:101D00008F4F9F4F089557FD9058440F551F59F01E
:101D10005F3F71F04795880F97FB991F61F09F3FD8
:101D200079F087950895121613061406551FF2CF01
:101D30004695F1DF08C0161617061806991FF1CF51
:101D400086957105610508940895E894BB27662778
:101D50007727CB0197F908955058BB27AA270E94EF
:101D6000C40E0C94720E0E94640E38F00E946B0E2A
:101D700020F039F49F3F19F426F40C94610E0EF410
:101D8000E095E7FB0C945B0EE92F0E94830E58F35D
:101D9000BA17620773078407950720F079F4A6F550
:101DA0000C94A50E0EF4E0950B2EBA2FA02D0B016E
:101DB000B90190010C01CA01A0011124FF27591B90
:101DC00099F0593F50F4503E68F11A16F040A22F96
:101DD000232F342F4427585FF3CF46953795279507
:101DE000A795F0405395C9F77EF41F16BA0B620B06
:101DF000730B840BBAF09150A1F0FF0FBB1F661F4D
:101E0000771F881FC2F70EC0BA0F621F731F841F8F
:101E100048F4879577956795B795F7959E3F08F0B5
:101E2000B0CF9395880F08F09927EE0F9795879577
:101E300008950E94200F6894B1110C94A60E089585
:101E40000E948B0E88F09F5798F0B92F9927B751B1
:101E5000B0F0E1F0660F771F881F991F1AF0BA954E
:101E6000C9F714C0B13091F00E94A50EB1E00895F9
:101E70000C94A50E672F782F8827B85F39F0B93FEB
:101E8000CCF3869577956795B395D9F73EF4909501
:101E90008095709561957F4F8F4F9F4F0895EE0FFE
:101EA000FF1F881F8BBF0790F691E02D19940F93A9
:101EB0001F93CF93DF938230910510F482E090E07E
:101EC000E0918903F0918A0330E020E0B0E0A0E0E7
:101ED000309799F42115310509F44AC0281B390BB4
:101EE00024303105D8F58A819B816115710589F10E
:101EF000FB0193838283FE0111C0408151810281E5
:101F0000138148175907E0F04817590799F41097BB
:101F100061F012960C93129713961C933296CF0190
:101F2000DF91CF911F910F91089500938903109332
:101F30008A03F4CF2115310551F04217530738F0C9
:101F4000A901DB019A01BD01DF01F801C1CFEF0159
:101F5000F9CF90938A0380938903CDCFFE01E20FDE
:101F6000F31F819391932250310939832883D7CF6E
:101F70002091870330918803232B41F4209107029D
:101F80003091080230938803209387032091050243
:101F9000309106022115310541F42DB73EB740912D
:101FA000090250910A02241B350BE0918703F0913E
:101FB0008803E217F307A0F42E1B3F0B28173907FD
:101FC00078F0AC014E5F5F4F2417350748F04E0F95
:101FD0005F1F5093880340938703819391939FCF12
:101FE000F0E0E0E09CCFCF93DF930097E9F0FC01B5
:101FF000329713821282A0918903B0918A03ED0176
:1020000030E020E01097A1F420813181820F931FEE
:1020100020918703309188032817390709F061C0A0
:10202000F0938803E0938703DF91CF910895EA014D
:10203000CE17DF07E8F54A815B819E014115510506
:10204000B1F7E901FB83EA8349915991C40FD51F88
:10205000EC17FD0761F4808191810296840F951F32
:10206000E90199838883828193819B838A83F0E04D
:10207000E0E012968D919C9113970097B9F52D9100
:102080003C911197CD010296820F931F20918703F7
:10209000309188032817390739F6309751F5109297
:1020A0008A0310928903B0938803A0938703BCCF5F
:1020B000D383C28340815181840F951FC817D907EC
:1020C00061F44E5F5F4F88819981480F591F51839A
:1020D00040838A819B81938382832115310509F096
:1020E000B0CFF0938A03E09389039ECFFD01DC011A
:1020F000C0CF13821282D7CF4F925F926F927F929E
:102100008F929F92AF92BF92CF92DF92EF92FF9207
:102110000F931F93CF93DF938C01009799F4CB011A
:10212000DF91CF911F910F91FF90EF90DF90CF90B3
:10213000BF90AF909F908F907F906F905F904F90E7
:102140000C94570FFC01E60FF71F9C012250310938
:10215000E217F30708F4AEC0D901CD91DC911197D5
:10216000C617D70720F1C530D10578F0CE01049706
:102170008617970750F0C61BD70B2297C193D193B0
:102180006D937C93CF010E94F30FC801DF91CF9133
:102190001F910F91FF90EF90DF90CF90BF90AF9085
:1021A0009F908F907F906F905F904F9008955B010C
:1021B000AC1ABD0A4C018C0E9D1EA0918903B091F2
:1021C0008A03512C412CF12CE12C109731F5809190
:1021D0008703909188038815990509F05CC046161D
:1021E000570608F058C080910502909106020097AA
:1021F00041F48DB79EB74091090250910A02841BA9
:10220000950BE817F90708F055C0F0938803E093A1
:102210008703F90171836083B8CF8D919C911197E9
:1022200012966C90129713967C901397A815B90587
:1022300059F56C0142E0C40ED11CCA14DB0420F134
:10224000AC014A195B09DA011296159780F0628297
:10225000738251834083D9016D937C93E114F1041F
:1022600071F0D7011396FC93EE9312978ECF2296BE
:102270008C0F9D1FF90191838083F301EFCFF093C1
:102280008A03E093890381CF4816590608F42C018C
:102290007D01D3019ACFCB010E94570F7C0100979B
:1022A00049F0AE01B8010E945D11C8010E94F30F10
:1022B00087016BCF10E000E068CFFB01DC0102C0BA
:1022C00001900D9241505040D8F70895FB01DC0178
:1022D0008D91019080190110D9F3990B0895FB019C
:1022E000DC0101900D920020E1F70895FB01DC0173
:1022F0004150504030F08D910190801919F4002028
:10230000B9F7881B990B0895FB01DC01415050403F
:1023100048F001900D920020C9F701C01D92415074
:102320005040E0F7089511E0CDE3D1E000E006C0B1
:10233000802FFE010E944F0F2196011DCE33D10741
:0A23400080E00807A9F7F894FFCF2A
:10234A00010101010100008B0380000000000080F0
:10235A0002AA01D701CD024802E6013A02000000B2
:10236A00008606AA014105A9010D0A006300633A25
:10237A00206F6E00680068207570206F6E006820FC
:10238A007570206F6666006820646F776E206F6EC6
:10239A0000740074207570206F6E007420757020B0
:1023AA006F6666007420646F776E206F6E006C0033
:1023BA00760043C2B00054656D70657261747572BF
:1023CA00613A2000250048756D656461643A200011
:1023DA00686F6B006875700068646F776E00746F61
:0C23EA006B007475700074646F776E00F7
:00000001FF
